{
  "_format": "hh-sol-artifact-1",
  "contractName": "BurnOnTransactionFacet",
  "sourceName": "contracts/facets/BurnOnTransactionFacet.sol",
  "abi": [
    {
      "anonymous": false,
      "inputs": [
        {
          "indexed": true,
          "internalType": "address",
          "name": "sender",
          "type": "address"
        },
        {
          "indexed": true,
          "internalType": "address",
          "name": "recipient",
          "type": "address"
        },
        {
          "indexed": false,
          "internalType": "uint256",
          "name": "amountSent",
          "type": "uint256"
        },
        {
          "indexed": false,
          "internalType": "uint256",
          "name": "amountBurned",
          "type": "uint256"
        }
      ],
      "name": "BurnOnTransactionExecuted",
      "type": "event"
    },
    {
      "inputs": [
        {
          "internalType": "uint256",
          "name": "_burnPercent",
          "type": "uint256"
        }
      ],
      "name": "initializeBurnModule",
      "outputs": [],
      "stateMutability": "nonpayable",
      "type": "function"
    },
    {
      "inputs": [
        {
          "internalType": "address",
          "name": "recipient",
          "type": "address"
        },
        {
          "internalType": "uint256",
          "name": "amount",
          "type": "uint256"
        }
      ],
      "name": "transfer",
      "outputs": [
        {
          "internalType": "bool",
          "name": "",
          "type": "bool"
        }
      ],
      "stateMutability": "nonpayable",
      "type": "function"
    }
  ],
  "bytecode": "0x6080604052348015600f57600080fd5b506109738061001f6000396000f3fe608060405234801561001057600080fd5b50600436106100365760003560e01c806342069f841461003b578063a9059cbb14610057575b600080fd5b61005560048036038101906100509190610555565b610087565b005b610071600480360381019061006c91906105e0565b6100e7565b60405161007e919061063b565b60405180910390f35b60006100916101d1565b905060008160000154146100da576040517f08c379a00000000000000000000000000000000000000000000000000000000081526004016100d1906106b3565b60405180910390fd5b8181600001819055505050565b6000806100f26101d1565b90506100fc6101fe565b156101ba5760006127108260000154856101169190610702565b6101209190610773565b90506000818561013091906107a4565b905061013c338361029f565b6101473387836103a7565b8573ffffffffffffffffffffffffffffffffffffffff163373ffffffffffffffffffffffffffffffffffffffff167fd78edcb58476b2b1f1936f4acebc3e8c8b988fb8a4a561261bef33600be6d90783856040516101a69291906107e7565b60405180910390a3600193505050506101cb565b6101c53385856103a7565b60019150505b92915050565b6000807f9bd60fdb676917b0f5c76299983696f49b4f92dc08605e34ade7813c0b0a14d790508091505090565b60003073ffffffffffffffffffffffffffffffffffffffff1663b6450b8d7f690544517371f00fa11567a2a451802d9da70ff689a150cb387c05627bcc8abe6040518263ffffffff1660e01b81526004016102599190610829565b602060405180830381865afa158015610276573d6000803e3d6000fd5b505050506040513d601f19601f8201168201806040525081019061029a9190610870565b905090565b60006102a96104ed565b9050818160000160008573ffffffffffffffffffffffffffffffffffffffff1673ffffffffffffffffffffffffffffffffffffffff16815260200190815260200160002054101561032f576040517f08c379a0000000000000000000000000000000000000000000000000000000008152600401610326906108e9565b60405180910390fd5b818160000160008573ffffffffffffffffffffffffffffffffffffffff1673ffffffffffffffffffffffffffffffffffffffff168152602001908152602001600020600082825461038091906107a4565b925050819055508181600101600082825461039b91906107a4565b92505081905550505050565b60006103b16104ed565b9050818160000160008673ffffffffffffffffffffffffffffffffffffffff1673ffffffffffffffffffffffffffffffffffffffff168152602001908152602001600020541015610437576040517f08c379a000000000000000000000000000000000000000000000000000000000815260040161042e906108e9565b60405180910390fd5b818160000160008673ffffffffffffffffffffffffffffffffffffffff1673ffffffffffffffffffffffffffffffffffffffff168152602001908152602001600020600082825461048891906107a4565b92505081905550818160000160008573ffffffffffffffffffffffffffffffffffffffff1673ffffffffffffffffffffffffffffffffffffffff16815260200190815260200160002060008282546104e09190610909565b9250508190555050505050565b6000807fa716b7cce20ffbe12e5c0af3eb2f57d81251cd975b53428558ae4ad51b4f942590508091505090565b600080fd5b6000819050919050565b6105328161051f565b811461053d57600080fd5b50565b60008135905061054f81610529565b92915050565b60006020828403121561056b5761056a61051a565b5b600061057984828501610540565b91505092915050565b600073ffffffffffffffffffffffffffffffffffffffff82169050919050565b60006105ad82610582565b9050919050565b6105bd816105a2565b81146105c857600080fd5b50565b6000813590506105da816105b4565b92915050565b600080604083850312156105f7576105f661051a565b5b6000610605858286016105cb565b925050602061061685828601610540565b9150509250929050565b60008115159050919050565b61063581610620565b82525050565b6000602082019050610650600083018461062c565b92915050565b600082825260208201905092915050565b7f416c726561647920696e697469616c697a656400000000000000000000000000600082015250565b600061069d601383610656565b91506106a882610667565b602082019050919050565b600060208201905081810360008301526106cc81610690565b9050919050565b7f4e487b7100000000000000000000000000000000000000000000000000000000600052601160045260246000fd5b600061070d8261051f565b91506107188361051f565b92508282026107268161051f565b9150828204841483151761073d5761073c6106d3565b5b5092915050565b7f4e487b7100000000000000000000000000000000000000000000000000000000600052601260045260246000fd5b600061077e8261051f565b91506107898361051f565b92508261079957610798610744565b5b828204905092915050565b60006107af8261051f565b91506107ba8361051f565b92508282039050818111156107d2576107d16106d3565b5b92915050565b6107e18161051f565b82525050565b60006040820190506107fc60008301856107d8565b61080960208301846107d8565b9392505050565b6000819050919050565b61082381610810565b82525050565b600060208201905061083e600083018461081a565b92915050565b61084d81610620565b811461085857600080fd5b50565b60008151905061086a81610844565b92915050565b6000602082840312156108865761088561051a565b5b60006108948482850161085b565b91505092915050565b7f496e73756666696369656e742062616c616e6365000000000000000000000000600082015250565b60006108d3601483610656565b91506108de8261089d565b602082019050919050565b60006020820190508181036000830152610902816108c6565b9050919050565b60006109148261051f565b915061091f8361051f565b9250828201905080821115610937576109366106d3565b5b9291505056fea264697066735822122049050fb88dbd52159e5903ae6afcdf1399ae66ac926d3767ca96d3c90e29c10664736f6c634300081c0033",
  "linkReferences": {},
  "deployedLinkReferences": {}
}