{
  "_format": "hh-sol-artifact-1",
  "contractName": "BurnOnTransactionFacet",
  "sourceName": "contracts/facets/BurnOnTransactionFacet.sol",
  "abi": [
    {
      "anonymous": false,
      "inputs": [
        {
          "indexed": true,
          "internalType": "address",
          "name": "sender",
          "type": "address"
        },
        {
          "indexed": true,
          "internalType": "address",
          "name": "recipient",
          "type": "address"
        },
        {
          "indexed": false,
          "internalType": "uint256",
          "name": "amountSent",
          "type": "uint256"
        },
        {
          "indexed": false,
          "internalType": "uint256",
          "name": "amountBurned",
          "type": "uint256"
        }
      ],
      "name": "BurnOnTransactionExecuted",
      "type": "event"
    },
    {
      "inputs": [],
      "name": "burnPercent",
      "outputs": [
        {
          "internalType": "uint256",
          "name": "",
          "type": "uint256"
        }
      ],
      "stateMutability": "view",
      "type": "function"
    },
    {
      "inputs": [
        {
          "internalType": "uint256",
          "name": "_burnPercent",
          "type": "uint256"
        }
      ],
      "name": "initializeBurnModule",
      "outputs": [],
      "stateMutability": "nonpayable",
      "type": "function"
    },
    {
      "inputs": [
        {
          "internalType": "address",
          "name": "from",
          "type": "address"
        },
        {
          "internalType": "address",
          "name": "to",
          "type": "address"
        },
        {
          "internalType": "uint256",
          "name": "amount",
          "type": "uint256"
        }
      ],
      "name": "transfer",
      "outputs": [
        {
          "internalType": "bool",
          "name": "",
          "type": "bool"
        }
      ],
      "stateMutability": "nonpayable",
      "type": "function"
    }
  ],
  "bytecode": "0x6080604052348015600f57600080fd5b506108418061001f6000396000f3fe608060405234801561001057600080fd5b50600436106100415760003560e01c806303807ee51461004657806342069f8414610064578063beabacc814610080575b600080fd5b61004e6100b0565b60405161005b9190610398565b60405180910390f35b61007e600480360381019061007991906103e4565b6100b6565b005b61009a6004803603810190610095919061046f565b610104565b6040516100a791906104dd565b60405180910390f35b60005481565b60008054146100fa576040517f08c379a00000000000000000000000000000000000000000000000000000000081526004016100f190610555565b60405180910390fd5b8060008190555050565b600061010e6102de565b61014d576040517f08c379a0000000000000000000000000000000000000000000000000000000008152600401610144906105c1565b60405180910390fd5b6000612710600054846101609190610610565b61016a9190610681565b90506000818461017a91906106b2565b90503073ffffffffffffffffffffffffffffffffffffffff16639dc29fac87846040518363ffffffff1660e01b81526004016101b79291906106f5565b600060405180830381600087803b1580156101d157600080fd5b505af11580156101e5573d6000803e3d6000fd5b505050503073ffffffffffffffffffffffffffffffffffffffff166323b872dd8787846040518463ffffffff1660e01b81526004016102269392919061071e565b6020604051808303816000875af1158015610245573d6000803e3d6000fd5b505050506040513d601f19601f820116820180604052508101906102699190610781565b508473ffffffffffffffffffffffffffffffffffffffff168673ffffffffffffffffffffffffffffffffffffffff167fd78edcb58476b2b1f1936f4acebc3e8c8b988fb8a4a561261bef33600be6d90783856040516102c99291906107ae565b60405180910390a36001925050509392505050565b60003073ffffffffffffffffffffffffffffffffffffffff1663b6450b8d7f690544517371f00fa11567a2a451802d9da70ff689a150cb387c05627bcc8abe6040518263ffffffff1660e01b815260040161033991906107f0565b602060405180830381865afa158015610356573d6000803e3d6000fd5b505050506040513d601f19601f8201168201806040525081019061037a9190610781565b905090565b6000819050919050565b6103928161037f565b82525050565b60006020820190506103ad6000830184610389565b92915050565b600080fd5b6103c18161037f565b81146103cc57600080fd5b50565b6000813590506103de816103b8565b92915050565b6000602082840312156103fa576103f96103b3565b5b6000610408848285016103cf565b91505092915050565b600073ffffffffffffffffffffffffffffffffffffffff82169050919050565b600061043c82610411565b9050919050565b61044c81610431565b811461045757600080fd5b50565b60008135905061046981610443565b92915050565b600080600060608486031215610488576104876103b3565b5b60006104968682870161045a565b93505060206104a78682870161045a565b92505060406104b8868287016103cf565b9150509250925092565b60008115159050919050565b6104d7816104c2565b82525050565b60006020820190506104f260008301846104ce565b92915050565b600082825260208201905092915050565b7f416c726561647920696e697469616c697a656400000000000000000000000000600082015250565b600061053f6013836104f8565b915061054a82610509565b602082019050919050565b6000602082019050818103600083015261056e81610532565b9050919050565b7f4275726e4f6e5472616e73616374696f6e20696e616374697665000000000000600082015250565b60006105ab601a836104f8565b91506105b682610575565b602082019050919050565b600060208201905081810360008301526105da8161059e565b9050919050565b7f4e487b7100000000000000000000000000000000000000000000000000000000600052601160045260246000fd5b600061061b8261037f565b91506106268361037f565b92508282026106348161037f565b9150828204841483151761064b5761064a6105e1565b5b5092915050565b7f4e487b7100000000000000000000000000000000000000000000000000000000600052601260045260246000fd5b600061068c8261037f565b91506106978361037f565b9250826106a7576106a6610652565b5b828204905092915050565b60006106bd8261037f565b91506106c88361037f565b92508282039050818111156106e0576106df6105e1565b5b92915050565b6106ef81610431565b82525050565b600060408201905061070a60008301856106e6565b6107176020830184610389565b9392505050565b600060608201905061073360008301866106e6565b61074060208301856106e6565b61074d6040830184610389565b949350505050565b61075e816104c2565b811461076957600080fd5b50565b60008151905061077b81610755565b92915050565b600060208284031215610797576107966103b3565b5b60006107a58482850161076c565b91505092915050565b60006040820190506107c36000830185610389565b6107d06020830184610389565b9392505050565b6000819050919050565b6107ea816107d7565b82525050565b600060208201905061080560008301846107e1565b9291505056fea26469706673582212201d22da3dc938839dabc3c00e17cb1d9c1d83391cb411fa23bf41fedd42940af064736f6c634300081c0033",
  "linkReferences": {},
  "deployedLinkReferences": {}
}