{
  "_format": "hh-sol-artifact-1",
  "contractName": "BurnOnTransactionFacet",
  "sourceName": "contracts/facets/BurnOnTransactionFacet.sol",
  "abi": [
    {
      "anonymous": false,
      "inputs": [
        {
          "indexed": true,
          "internalType": "address",
          "name": "sender",
          "type": "address"
        },
        {
          "indexed": true,
          "internalType": "address",
          "name": "recipient",
          "type": "address"
        },
        {
          "indexed": false,
          "internalType": "uint256",
          "name": "amountSent",
          "type": "uint256"
        },
        {
          "indexed": false,
          "internalType": "uint256",
          "name": "amountBurned",
          "type": "uint256"
        }
      ],
      "name": "BurnOnTransactionExecuted",
      "type": "event"
    },
    {
      "inputs": [],
      "name": "burnPercent",
      "outputs": [
        {
          "internalType": "uint256",
          "name": "",
          "type": "uint256"
        }
      ],
      "stateMutability": "view",
      "type": "function"
    },
    {
      "inputs": [
        {
          "internalType": "uint256",
          "name": "_burnPercent",
          "type": "uint256"
        }
      ],
      "name": "initializeBurnModule",
      "outputs": [],
      "stateMutability": "nonpayable",
      "type": "function"
    },
    {
      "inputs": [
        {
          "internalType": "address",
          "name": "recipient",
          "type": "address"
        },
        {
          "internalType": "uint256",
          "name": "amount",
          "type": "uint256"
        }
      ],
      "name": "transfer",
      "outputs": [
        {
          "internalType": "bool",
          "name": "",
          "type": "bool"
        }
      ],
      "stateMutability": "nonpayable",
      "type": "function"
    }
  ],
  "bytecode": "0x6080604052348015600f57600080fd5b50610ad98061001f6000396000f3fe608060405234801561001057600080fd5b50600436106100415760003560e01c806303807ee51461004657806342069f8414610064578063a9059cbb14610080575b600080fd5b61004e6100b0565b60405161005b9190610586565b60405180910390f35b61007e600480360381019061007991906105d2565b6100b6565b005b61009a6004803603810190610095919061065d565b610104565b6040516100a791906106b8565b60405180910390f35b60005481565b60008054146100fa576040517f08c379a00000000000000000000000000000000000000000000000000000000081526004016100f190610730565b60405180910390fd5b8060008190555050565b600061010e6104cc565b1561037157600061271060005484610126919061077f565b61013091906107f0565b9050600081846101409190610821565b90503073ffffffffffffffffffffffffffffffffffffffff16639dc29fac33846040518363ffffffff1660e01b815260040161017d929190610864565b600060405180830381600087803b15801561019757600080fd5b505af11580156101ab573d6000803e3d6000fd5b505050506000803073ffffffffffffffffffffffffffffffffffffffff1687846040516024016101dc929190610864565b6040516020818303038152906040527fa9059cbb000000000000000000000000000000000000000000000000000000007bffffffffffffffffffffffffffffffffffffffffffffffffffffffff19166020820180517bffffffffffffffffffffffffffffffffffffffffffffffffffffffff838183161783525050505060405161026691906108fe565b600060405180830381855af49150503d80600081146102a1576040519150601f19603f3d011682016040523d82523d6000602084013e6102a6565b606091505b5091509150816102eb576040517f08c379a00000000000000000000000000000000000000000000000000000000081526004016102e290610961565b60405180910390fd5b8673ffffffffffffffffffffffffffffffffffffffff163373ffffffffffffffffffffffffffffffffffffffff167fd78edcb58476b2b1f1936f4acebc3e8c8b988fb8a4a561261bef33600be6d907858760405161034a929190610981565b60405180910390a38080602001905181019061036691906109d6565b9450505050506104c6565b6000803073ffffffffffffffffffffffffffffffffffffffff16858560405160240161039e929190610864565b6040516020818303038152906040527fa9059cbb000000000000000000000000000000000000000000000000000000007bffffffffffffffffffffffffffffffffffffffffffffffffffffffff19166020820180517bffffffffffffffffffffffffffffffffffffffffffffffffffffffff838183161783525050505060405161042891906108fe565b600060405180830381855af49150503d8060008114610463576040519150601f19603f3d011682016040523d82523d6000602084013e610468565b606091505b5091509150816104ad576040517f08c379a00000000000000000000000000000000000000000000000000000000081526004016104a490610a4f565b60405180910390fd5b808060200190518101906104c191906109d6565b925050505b92915050565b60003073ffffffffffffffffffffffffffffffffffffffff1663b6450b8d7f690544517371f00fa11567a2a451802d9da70ff689a150cb387c05627bcc8abe6040518263ffffffff1660e01b81526004016105279190610a88565b602060405180830381865afa158015610544573d6000803e3d6000fd5b505050506040513d601f19601f8201168201806040525081019061056891906109d6565b905090565b6000819050919050565b6105808161056d565b82525050565b600060208201905061059b6000830184610577565b92915050565b600080fd5b6105af8161056d565b81146105ba57600080fd5b50565b6000813590506105cc816105a6565b92915050565b6000602082840312156105e8576105e76105a1565b5b60006105f6848285016105bd565b91505092915050565b600073ffffffffffffffffffffffffffffffffffffffff82169050919050565b600061062a826105ff565b9050919050565b61063a8161061f565b811461064557600080fd5b50565b60008135905061065781610631565b92915050565b60008060408385031215610674576106736105a1565b5b600061068285828601610648565b9250506020610693858286016105bd565b9150509250929050565b60008115159050919050565b6106b28161069d565b82525050565b60006020820190506106cd60008301846106a9565b92915050565b600082825260208201905092915050565b7f416c726561647920696e697469616c697a656400000000000000000000000000600082015250565b600061071a6013836106d3565b9150610725826106e4565b602082019050919050565b600060208201905081810360008301526107498161070d565b9050919050565b7f4e487b7100000000000000000000000000000000000000000000000000000000600052601160045260246000fd5b600061078a8261056d565b91506107958361056d565b92508282026107a38161056d565b915082820484148315176107ba576107b9610750565b5b5092915050565b7f4e487b7100000000000000000000000000000000000000000000000000000000600052601260045260246000fd5b60006107fb8261056d565b91506108068361056d565b925082610816576108156107c1565b5b828204905092915050565b600061082c8261056d565b91506108378361056d565b925082820390508181111561084f5761084e610750565b5b92915050565b61085e8161061f565b82525050565b60006040820190506108796000830185610855565b6108866020830184610577565b9392505050565b600081519050919050565b600081905092915050565b60005b838110156108c15780820151818401526020810190506108a6565b60008484015250505050565b60006108d88261088d565b6108e28185610898565b93506108f28185602086016108a3565b80840191505092915050565b600061090a82846108cd565b915081905092915050565b7f5472616e73666572206661696c6564206166746572206275726e000000000000600082015250565b600061094b601a836106d3565b915061095682610915565b602082019050919050565b6000602082019050818103600083015261097a8161093e565b9050919050565b60006040820190506109966000830185610577565b6109a36020830184610577565b9392505050565b6109b38161069d565b81146109be57600080fd5b50565b6000815190506109d0816109aa565b92915050565b6000602082840312156109ec576109eb6105a1565b5b60006109fa848285016109c1565b91505092915050565b7f5374616e64617264207472616e73666572206661696c65640000000000000000600082015250565b6000610a396018836106d3565b9150610a4482610a03565b602082019050919050565b60006020820190508181036000830152610a6881610a2c565b9050919050565b6000819050919050565b610a8281610a6f565b82525050565b6000602082019050610a9d6000830184610a79565b9291505056fea2646970667358221220f201c65d69b873ab99ca5888ba77e7c9de0e859c60e7de788b7ac21afc5082b864736f6c634300081c0033",
  "linkReferences": {},
  "deployedLinkReferences": {}
}