{
  "_format": "hh-sol-artifact-1",
  "contractName": "BurnOnTransactionFacet",
  "sourceName": "contracts/facets/BurnOnTransactionFacet.sol",
  "abi": [
    {
      "anonymous": false,
      "inputs": [
        {
          "indexed": true,
          "internalType": "address",
          "name": "sender",
          "type": "address"
        },
        {
          "indexed": true,
          "internalType": "address",
          "name": "recipient",
          "type": "address"
        },
        {
          "indexed": false,
          "internalType": "uint256",
          "name": "amountSent",
          "type": "uint256"
        },
        {
          "indexed": false,
          "internalType": "uint256",
          "name": "amountBurned",
          "type": "uint256"
        }
      ],
      "name": "BurnOnTransactionExecuted",
      "type": "event"
    },
    {
      "inputs": [
        {
          "internalType": "uint256",
          "name": "_burnPercent",
          "type": "uint256"
        }
      ],
      "name": "initializeBurnModule",
      "outputs": [],
      "stateMutability": "nonpayable",
      "type": "function"
    },
    {
      "inputs": [
        {
          "internalType": "address",
          "name": "recipient",
          "type": "address"
        },
        {
          "internalType": "uint256",
          "name": "amount",
          "type": "uint256"
        }
      ],
      "name": "transfer",
      "outputs": [
        {
          "internalType": "bool",
          "name": "",
          "type": "bool"
        }
      ],
      "stateMutability": "nonpayable",
      "type": "function"
    },
    {
      "inputs": [
        {
          "internalType": "uint256",
          "name": "newBurnPercent",
          "type": "uint256"
        }
      ],
      "name": "updateBurnModule",
      "outputs": [],
      "stateMutability": "nonpayable",
      "type": "function"
    }
  ],
  "bytecode": "0x6080604052348015600f57600080fd5b50610c298061001f6000396000f3fe608060405234801561001057600080fd5b50600436106100415760003560e01c806342069f8414610046578063a9059cbb14610062578063b23db85114610092575b600080fd5b610060600480360381019061005b919061069c565b6100ae565b005b61007c60048036038101906100779190610727565b61010e565b6040516100899190610782565b60405180910390f35b6100ac60048036038101906100a7919061069c565b6101d5565b005b60006100b8610282565b90506000816000015414610101576040517f08c379a00000000000000000000000000000000000000000000000000000000081526004016100f8906107fa565b60405180910390fd5b8181600001819055505050565b600080610119610282565b905060006127108260000154856101309190610849565b61013a91906108ba565b90506000818561014a91906108eb565b905061015633836102af565b6101613387836103b7565b8573ffffffffffffffffffffffffffffffffffffffff163373ffffffffffffffffffffffffffffffffffffffff167fd78edcb58476b2b1f1936f4acebc3e8c8b988fb8a4a561261bef33600be6d90783856040516101c092919061092e565b60405180910390a36001935050505092915050565b6101dd61056c565b60006101e7610282565b90506000816000015403610230576040517f08c379a0000000000000000000000000000000000000000000000000000000008152600401610227906109a3565b60405180910390fd5b612710821115610275576040517f08c379a000000000000000000000000000000000000000000000000000000000815260040161026c90610a0f565b60405180910390fd5b8181600001819055505050565b6000807f9bd60fdb676917b0f5c76299983696f49b4f92dc08605e34ade7813c0b0a14d790508091505090565b60006102b9610607565b9050818160000160008573ffffffffffffffffffffffffffffffffffffffff1673ffffffffffffffffffffffffffffffffffffffff16815260200190815260200160002054101561033f576040517f08c379a000000000000000000000000000000000000000000000000000000000815260040161033690610a7b565b60405180910390fd5b818160000160008573ffffffffffffffffffffffffffffffffffffffff1673ffffffffffffffffffffffffffffffffffffffff168152602001908152602001600020600082825461039091906108eb565b92505081905550818160010160008282546103ab91906108eb565b92505081905550505050565b60006103c1610607565b9050600073ffffffffffffffffffffffffffffffffffffffff168373ffffffffffffffffffffffffffffffffffffffff1603610432576040517f08c379a000000000000000000000000000000000000000000000000000000000815260040161042990610b0d565b60405180910390fd5b818160000160008673ffffffffffffffffffffffffffffffffffffffff1673ffffffffffffffffffffffffffffffffffffffff1681526020019081526020016000205410156104b6576040517f08c379a00000000000000000000000000000000000000000000000000000000081526004016104ad90610a7b565b60405180910390fd5b818160000160008673ffffffffffffffffffffffffffffffffffffffff1673ffffffffffffffffffffffffffffffffffffffff168152602001908152602001600020600082825461050791906108eb565b92505081905550818160000160008573ffffffffffffffffffffffffffffffffffffffff1673ffffffffffffffffffffffffffffffffffffffff168152602001908152602001600020600082825461055f9190610b2d565b9250508190555050505050565b610574610634565b60040160009054906101000a900473ffffffffffffffffffffffffffffffffffffffff1673ffffffffffffffffffffffffffffffffffffffff163373ffffffffffffffffffffffffffffffffffffffff1614610605576040517f08c379a00000000000000000000000000000000000000000000000000000000081526004016105fc90610bd3565b60405180910390fd5b565b6000807fa716b7cce20ffbe12e5c0af3eb2f57d81251cd975b53428558ae4ad51b4f942590508091505090565b6000807fc8fcad8db84d3cc18b4c41d551ea0ee66dd599cde068d998e57d5e09332c131c90508091505090565b600080fd5b6000819050919050565b61067981610666565b811461068457600080fd5b50565b60008135905061069681610670565b92915050565b6000602082840312156106b2576106b1610661565b5b60006106c084828501610687565b91505092915050565b600073ffffffffffffffffffffffffffffffffffffffff82169050919050565b60006106f4826106c9565b9050919050565b610704816106e9565b811461070f57600080fd5b50565b600081359050610721816106fb565b92915050565b6000806040838503121561073e5761073d610661565b5b600061074c85828601610712565b925050602061075d85828601610687565b9150509250929050565b60008115159050919050565b61077c81610767565b82525050565b60006020820190506107976000830184610773565b92915050565b600082825260208201905092915050565b7f416c726561647920696e697469616c697a656400000000000000000000000000600082015250565b60006107e460138361079d565b91506107ef826107ae565b602082019050919050565b60006020820190508181036000830152610813816107d7565b9050919050565b7f4e487b7100000000000000000000000000000000000000000000000000000000600052601160045260246000fd5b600061085482610666565b915061085f83610666565b925082820261086d81610666565b915082820484148315176108845761088361081a565b5b5092915050565b7f4e487b7100000000000000000000000000000000000000000000000000000000600052601260045260246000fd5b60006108c582610666565b91506108d083610666565b9250826108e0576108df61088b565b5b828204905092915050565b60006108f682610666565b915061090183610666565b92508282039050818111156109195761091861081a565b5b92915050565b61092881610666565b82525050565b6000604082019050610943600083018561091f565b610950602083018461091f565b9392505050565b7f4d6f64756c65206e6f7420696e697469616c697a656400000000000000000000600082015250565b600061098d60168361079d565b915061099882610957565b602082019050919050565b600060208201905081810360008301526109bc81610980565b9050919050565b7f496e76616c6964206275726e2072617465000000000000000000000000000000600082015250565b60006109f960118361079d565b9150610a04826109c3565b602082019050919050565b60006020820190508181036000830152610a28816109ec565b9050919050565b7f496e73756666696369656e742062616c616e6365000000000000000000000000600082015250565b6000610a6560148361079d565b9150610a7082610a2f565b602082019050919050565b60006020820190508181036000830152610a9481610a58565b9050919050565b7f45524332303a207472616e7366657220746f20746865207a65726f206164647260008201527f6573730000000000000000000000000000000000000000000000000000000000602082015250565b6000610af760238361079d565b9150610b0282610a9b565b604082019050919050565b60006020820190508181036000830152610b2681610aea565b9050919050565b6000610b3882610666565b9150610b4383610666565b9250828201905080821115610b5b57610b5a61081a565b5b92915050565b7f4c69624469616d6f6e643a204d75737420626520636f6e7472616374206f776e60008201527f6572000000000000000000000000000000000000000000000000000000000000602082015250565b6000610bbd60228361079d565b9150610bc882610b61565b604082019050919050565b60006020820190508181036000830152610bec81610bb0565b905091905056fea2646970667358221220f05dbf7dc478072d7374613004af15cb8332c81d176edfd304b9f6ee69dae91b64736f6c634300081c0033",
  "linkReferences": {},
  "deployedLinkReferences": {}
}