{
  "_format": "hh-sol-artifact-1",
  "contractName": "BurnOnTransactionFacet",
  "sourceName": "contracts/facets/BurnOnTransactionFacet.sol",
  "abi": [
    {
      "anonymous": false,
      "inputs": [
        {
          "indexed": true,
          "internalType": "address",
          "name": "sender",
          "type": "address"
        },
        {
          "indexed": true,
          "internalType": "address",
          "name": "recipient",
          "type": "address"
        },
        {
          "indexed": false,
          "internalType": "uint256",
          "name": "amountSent",
          "type": "uint256"
        },
        {
          "indexed": false,
          "internalType": "uint256",
          "name": "amountBurned",
          "type": "uint256"
        }
      ],
      "name": "BurnOnTransactionExecuted",
      "type": "event"
    },
    {
      "inputs": [
        {
          "internalType": "uint256",
          "name": "_burnPercent",
          "type": "uint256"
        }
      ],
      "name": "initializeBurnModule",
      "outputs": [],
      "stateMutability": "nonpayable",
      "type": "function"
    },
    {
      "inputs": [
        {
          "internalType": "address",
          "name": "recipient",
          "type": "address"
        },
        {
          "internalType": "uint256",
          "name": "amount",
          "type": "uint256"
        }
      ],
      "name": "transfer",
      "outputs": [
        {
          "internalType": "bool",
          "name": "",
          "type": "bool"
        }
      ],
      "stateMutability": "nonpayable",
      "type": "function"
    }
  ],
  "bytecode": "0x6080604052348015600f57600080fd5b5061097a8061001f6000396000f3fe608060405234801561001057600080fd5b50600436106100365760003560e01c806342069f841461003b578063a9059cbb14610057575b600080fd5b6100556004803603810190610050919061055c565b610087565b005b610071600480360381019061006c91906105e7565b6100e7565b60405161007e9190610642565b60405180910390f35b60006100916101d8565b905060008160000154146100da576040517f08c379a00000000000000000000000000000000000000000000000000000000081526004016100d1906106ba565b60405180910390fd5b8181600001819055505050565b6000806100f26101d8565b9050600081600001549050610105610205565b156101c0576000612710828661011b9190610709565b610125919061077a565b90506000818661013591906107ab565b905061014133836102a6565b61014c3388836103ae565b8673ffffffffffffffffffffffffffffffffffffffff163373ffffffffffffffffffffffffffffffffffffffff167fd78edcb58476b2b1f1936f4acebc3e8c8b988fb8a4a561261bef33600be6d90783856040516101ab9291906107ee565b60405180910390a360019450505050506101d2565b6101cb3386866103ae565b6001925050505b92915050565b6000807f9bd60fdb676917b0f5c76299983696f49b4f92dc08605e34ade7813c0b0a14d790508091505090565b60003073ffffffffffffffffffffffffffffffffffffffff1663b6450b8d7f690544517371f00fa11567a2a451802d9da70ff689a150cb387c05627bcc8abe6040518263ffffffff1660e01b81526004016102609190610830565b602060405180830381865afa15801561027d573d6000803e3d6000fd5b505050506040513d601f19601f820116820180604052508101906102a19190610877565b905090565b60006102b06104f4565b9050818160000160008573ffffffffffffffffffffffffffffffffffffffff1673ffffffffffffffffffffffffffffffffffffffff168152602001908152602001600020541015610336576040517f08c379a000000000000000000000000000000000000000000000000000000000815260040161032d906108f0565b60405180910390fd5b818160000160008573ffffffffffffffffffffffffffffffffffffffff1673ffffffffffffffffffffffffffffffffffffffff168152602001908152602001600020600082825461038791906107ab565b92505081905550818160010160008282546103a291906107ab565b92505081905550505050565b60006103b86104f4565b9050818160000160008673ffffffffffffffffffffffffffffffffffffffff1673ffffffffffffffffffffffffffffffffffffffff16815260200190815260200160002054101561043e576040517f08c379a0000000000000000000000000000000000000000000000000000000008152600401610435906108f0565b60405180910390fd5b818160000160008673ffffffffffffffffffffffffffffffffffffffff1673ffffffffffffffffffffffffffffffffffffffff168152602001908152602001600020600082825461048f91906107ab565b92505081905550818160000160008573ffffffffffffffffffffffffffffffffffffffff1673ffffffffffffffffffffffffffffffffffffffff16815260200190815260200160002060008282546104e79190610910565b9250508190555050505050565b6000807fa716b7cce20ffbe12e5c0af3eb2f57d81251cd975b53428558ae4ad51b4f942590508091505090565b600080fd5b6000819050919050565b61053981610526565b811461054457600080fd5b50565b60008135905061055681610530565b92915050565b60006020828403121561057257610571610521565b5b600061058084828501610547565b91505092915050565b600073ffffffffffffffffffffffffffffffffffffffff82169050919050565b60006105b482610589565b9050919050565b6105c4816105a9565b81146105cf57600080fd5b50565b6000813590506105e1816105bb565b92915050565b600080604083850312156105fe576105fd610521565b5b600061060c858286016105d2565b925050602061061d85828601610547565b9150509250929050565b60008115159050919050565b61063c81610627565b82525050565b60006020820190506106576000830184610633565b92915050565b600082825260208201905092915050565b7f416c726561647920696e697469616c697a656400000000000000000000000000600082015250565b60006106a460138361065d565b91506106af8261066e565b602082019050919050565b600060208201905081810360008301526106d381610697565b9050919050565b7f4e487b7100000000000000000000000000000000000000000000000000000000600052601160045260246000fd5b600061071482610526565b915061071f83610526565b925082820261072d81610526565b91508282048414831517610744576107436106da565b5b5092915050565b7f4e487b7100000000000000000000000000000000000000000000000000000000600052601260045260246000fd5b600061078582610526565b915061079083610526565b9250826107a05761079f61074b565b5b828204905092915050565b60006107b682610526565b91506107c183610526565b92508282039050818111156107d9576107d86106da565b5b92915050565b6107e881610526565b82525050565b600060408201905061080360008301856107df565b61081060208301846107df565b9392505050565b6000819050919050565b61082a81610817565b82525050565b60006020820190506108456000830184610821565b92915050565b61085481610627565b811461085f57600080fd5b50565b6000815190506108718161084b565b92915050565b60006020828403121561088d5761088c610521565b5b600061089b84828501610862565b91505092915050565b7f496e73756666696369656e742062616c616e6365000000000000000000000000600082015250565b60006108da60148361065d565b91506108e5826108a4565b602082019050919050565b60006020820190508181036000830152610909816108cd565b9050919050565b600061091b82610526565b915061092683610526565b925082820190508082111561093e5761093d6106da565b5b9291505056fea2646970667358221220a076b2d7b2ae0c1fe76654bb3bbde150e6fb54f1bafb28bcf389abe1d7f2a0b564736f6c634300081c0033",
  "linkReferences": {},
  "deployedLinkReferences": {}
}