{"contracts/facets/Test1Facet.sol":{"Test1Facet":{"abi":[{"anonymous":false,"inputs":[{"indexed":false,"internalType":"address","name":"something","type":"address"}],"name":"TestEvent","type":"event"},{"inputs":[{"internalType":"bytes4","name":"_interfaceID","type":"bytes4"}],"name":"supportsInterface","outputs":[{"internalType":"bool","name":"","type":"bool"}],"stateMutability":"view","type":"function"},{"inputs":[],"name":"test1Func1","outputs":[],"stateMutability":"nonpayable","type":"function"},{"inputs":[],"name":"test1Func10","outputs":[],"stateMutability":"nonpayable","type":"function"},{"inputs":[],"name":"test1Func11","outputs":[],"stateMutability":"nonpayable","type":"function"},{"inputs":[],"name":"test1Func12","outputs":[],"stateMutability":"nonpayable","type":"function"},{"inputs":[],"name":"test1Func13","outputs":[],"stateMutability":"nonpayable","type":"function"},{"inputs":[],"name":"test1Func14","outputs":[],"stateMutability":"nonpayable","type":"function"},{"inputs":[],"name":"test1Func15","outputs":[],"stateMutability":"nonpayable","type":"function"},{"inputs":[],"name":"test1Func16","outputs":[],"stateMutability":"nonpayable","type":"function"},{"inputs":[],"name":"test1Func17","outputs":[],"stateMutability":"nonpayable","type":"function"},{"inputs":[],"name":"test1Func18","outputs":[],"stateMutability":"nonpayable","type":"function"},{"inputs":[],"name":"test1Func19","outputs":[],"stateMutability":"nonpayable","type":"function"},{"inputs":[],"name":"test1Func2","outputs":[],"stateMutability":"nonpayable","type":"function"},{"inputs":[],"name":"test1Func20","outputs":[],"stateMutability":"nonpayable","type":"function"},{"inputs":[],"name":"test1Func3","outputs":[],"stateMutability":"nonpayable","type":"function"},{"inputs":[],"name":"test1Func4","outputs":[],"stateMutability":"nonpayable","type":"function"},{"inputs":[],"name":"test1Func5","outputs":[],"stateMutability":"nonpayable","type":"function"},{"inputs":[],"name":"test1Func6","outputs":[],"stateMutability":"nonpayable","type":"function"},{"inputs":[],"name":"test1Func7","outputs":[],"stateMutability":"nonpayable","type":"function"},{"inputs":[],"name":"test1Func8","outputs":[],"stateMutability":"nonpayable","type":"function"},{"inputs":[],"name":"test1Func9","outputs":[],"stateMutability":"nonpayable","type":"function"}],"evm":{"bytecode":{"linkReferences":{},"object":"6080604052348015600f57600080fd5b506103598061001f6000396000f3fe608060405234801561001057600080fd5b50600436106101375760003560e01c806351b68a4d116100b85780639abf97aa1161007c5780639abf97aa146101f8578063b0e8fcc714610202578063cbb835f61461020c578063cd0bae0914610216578063cf3bbe1814610220578063db32da151461022a57610137565b806351b68a4d146101c657806371a99d6f146101d057806377e9d0d6146101da57806381b5207d146101e457806387952d22146101ee57610137565b806324c1d5a7116100ff57806324c1d5a714610194578063292c460d1461019e5780632cb83248146101a85780634484b3b9146101b257806350eb3f43146101bc57610137565b806301ffc9a71461013c5780630716c2ae1461016c578063110460471461017657806319c841ab1461018057806319e3b5331461018a575b600080fd5b610156600480360381019061015191906102c0565b610234565b6040516101639190610308565b60405180910390f35b61017461023b565b005b61017e61023d565b005b61018861023f565b005b610192610241565b005b61019c610243565b005b6101a6610245565b005b6101b0610247565b005b6101ba610249565b005b6101c461024b565b005b6101ce61024d565b005b6101d861024f565b005b6101e2610251565b005b6101ec610253565b005b6101f6610255565b005b610200610257565b005b61020a610259565b005b61021461025b565b005b61021e61025d565b005b61022861025f565b005b610232610261565b005b6000919050565b565b565b565b565b565b565b565b565b565b565b565b565b565b565b565b565b565b565b565b565b600080fd5b60007fffffffff0000000000000000000000000000000000000000000000000000000082169050919050565b61029d81610268565b81146102a857600080fd5b50565b6000813590506102ba81610294565b92915050565b6000602082840312156102d6576102d5610263565b5b60006102e4848285016102ab565b91505092915050565b60008115159050919050565b610302816102ed565b82525050565b600060208201905061031d60008301846102f9565b9291505056fea26469706673582212201568f1bf956360fef3471e8df330b5851029923908ba561ba9d866b14b6d732164736f6c634300081c0033","opcodes":"PUSH1 0x80 PUSH1 0x40 MSTORE CALLVALUE DUP1 ISZERO PUSH1 0xF JUMPI PUSH1 0x0 DUP1 REVERT JUMPDEST POP PUSH2 0x359 DUP1 PUSH2 0x1F PUSH1 0x0 CODECOPY PUSH1 0x0 RETURN INVALID PUSH1 0x80 PUSH1 0x40 MSTORE CALLVALUE DUP1 ISZERO PUSH2 0x10 JUMPI PUSH1 0x0 DUP1 REVERT JUMPDEST POP PUSH1 0x4 CALLDATASIZE LT PUSH2 0x137 JUMPI PUSH1 0x0 CALLDATALOAD PUSH1 0xE0 SHR DUP1 PUSH4 0x51B68A4D GT PUSH2 0xB8 JUMPI DUP1 PUSH4 0x9ABF97AA GT PUSH2 0x7C JUMPI DUP1 PUSH4 0x9ABF97AA EQ PUSH2 0x1F8 JUMPI DUP1 PUSH4 0xB0E8FCC7 EQ PUSH2 0x202 JUMPI DUP1 PUSH4 0xCBB835F6 EQ PUSH2 0x20C JUMPI DUP1 PUSH4 0xCD0BAE09 EQ PUSH2 0x216 JUMPI DUP1 PUSH4 0xCF3BBE18 EQ PUSH2 0x220 JUMPI DUP1 PUSH4 0xDB32DA15 EQ PUSH2 0x22A JUMPI PUSH2 0x137 JUMP JUMPDEST DUP1 PUSH4 0x51B68A4D EQ PUSH2 0x1C6 JUMPI DUP1 PUSH4 0x71A99D6F EQ PUSH2 0x1D0 JUMPI DUP1 PUSH4 0x77E9D0D6 EQ PUSH2 0x1DA JUMPI DUP1 PUSH4 0x81B5207D EQ PUSH2 0x1E4 JUMPI DUP1 PUSH4 0x87952D22 EQ PUSH2 0x1EE JUMPI PUSH2 0x137 JUMP JUMPDEST DUP1 PUSH4 0x24C1D5A7 GT PUSH2 0xFF JUMPI DUP1 PUSH4 0x24C1D5A7 EQ PUSH2 0x194 JUMPI DUP1 PUSH4 0x292C460D EQ PUSH2 0x19E JUMPI DUP1 PUSH4 0x2CB83248 EQ PUSH2 0x1A8 JUMPI DUP1 PUSH4 0x4484B3B9 EQ PUSH2 0x1B2 JUMPI DUP1 PUSH4 0x50EB3F43 EQ PUSH2 0x1BC JUMPI PUSH2 0x137 JUMP JUMPDEST DUP1 PUSH4 0x1FFC9A7 EQ PUSH2 0x13C JUMPI DUP1 PUSH4 0x716C2AE EQ PUSH2 0x16C JUMPI DUP1 PUSH4 0x11046047 EQ PUSH2 0x176 JUMPI DUP1 PUSH4 0x19C841AB EQ PUSH2 0x180 JUMPI DUP1 PUSH4 0x19E3B533 EQ PUSH2 0x18A JUMPI JUMPDEST PUSH1 0x0 DUP1 REVERT JUMPDEST PUSH2 0x156 PUSH1 0x4 DUP1 CALLDATASIZE SUB DUP2 ADD SWAP1 PUSH2 0x151 SWAP2 SWAP1 PUSH2 0x2C0 JUMP JUMPDEST PUSH2 0x234 JUMP JUMPDEST PUSH1 0x40 MLOAD PUSH2 0x163 SWAP2 SWAP1 PUSH2 0x308 JUMP JUMPDEST PUSH1 0x40 MLOAD DUP1 SWAP2 SUB SWAP1 RETURN JUMPDEST PUSH2 0x174 PUSH2 0x23B JUMP JUMPDEST STOP JUMPDEST PUSH2 0x17E PUSH2 0x23D JUMP JUMPDEST STOP JUMPDEST PUSH2 0x188 PUSH2 0x23F JUMP JUMPDEST STOP JUMPDEST PUSH2 0x192 PUSH2 0x241 JUMP JUMPDEST STOP JUMPDEST PUSH2 0x19C PUSH2 0x243 JUMP JUMPDEST STOP JUMPDEST PUSH2 0x1A6 PUSH2 0x245 JUMP JUMPDEST STOP JUMPDEST PUSH2 0x1B0 PUSH2 0x247 JUMP JUMPDEST STOP JUMPDEST PUSH2 0x1BA PUSH2 0x249 JUMP JUMPDEST STOP JUMPDEST PUSH2 0x1C4 PUSH2 0x24B JUMP JUMPDEST STOP JUMPDEST PUSH2 0x1CE PUSH2 0x24D JUMP JUMPDEST STOP JUMPDEST PUSH2 0x1D8 PUSH2 0x24F JUMP JUMPDEST STOP JUMPDEST PUSH2 0x1E2 PUSH2 0x251 JUMP JUMPDEST STOP JUMPDEST PUSH2 0x1EC PUSH2 0x253 JUMP JUMPDEST STOP JUMPDEST PUSH2 0x1F6 PUSH2 0x255 JUMP JUMPDEST STOP JUMPDEST PUSH2 0x200 PUSH2 0x257 JUMP JUMPDEST STOP JUMPDEST PUSH2 0x20A PUSH2 0x259 JUMP JUMPDEST STOP JUMPDEST PUSH2 0x214 PUSH2 0x25B JUMP JUMPDEST STOP JUMPDEST PUSH2 0x21E PUSH2 0x25D JUMP JUMPDEST STOP JUMPDEST PUSH2 0x228 PUSH2 0x25F JUMP JUMPDEST STOP JUMPDEST PUSH2 0x232 PUSH2 0x261 JUMP JUMPDEST STOP JUMPDEST PUSH1 0x0 SWAP2 SWAP1 POP JUMP JUMPDEST JUMP JUMPDEST JUMP JUMPDEST JUMP JUMPDEST JUMP JUMPDEST JUMP JUMPDEST JUMP JUMPDEST JUMP JUMPDEST JUMP JUMPDEST JUMP JUMPDEST JUMP JUMPDEST JUMP JUMPDEST JUMP JUMPDEST JUMP JUMPDEST JUMP JUMPDEST JUMP JUMPDEST JUMP JUMPDEST JUMP JUMPDEST JUMP JUMPDEST JUMP JUMPDEST JUMP JUMPDEST PUSH1 0x0 DUP1 REVERT JUMPDEST PUSH1 0x0 PUSH32 0xFFFFFFFF00000000000000000000000000000000000000000000000000000000 DUP3 AND SWAP1 POP SWAP2 SWAP1 POP JUMP JUMPDEST PUSH2 0x29D DUP2 PUSH2 0x268 JUMP JUMPDEST DUP2 EQ PUSH2 0x2A8 JUMPI PUSH1 0x0 DUP1 REVERT JUMPDEST POP JUMP JUMPDEST PUSH1 0x0 DUP2 CALLDATALOAD SWAP1 POP PUSH2 0x2BA DUP2 PUSH2 0x294 JUMP JUMPDEST SWAP3 SWAP2 POP POP JUMP JUMPDEST PUSH1 0x0 PUSH1 0x20 DUP3 DUP5 SUB SLT ISZERO PUSH2 0x2D6 JUMPI PUSH2 0x2D5 PUSH2 0x263 JUMP JUMPDEST JUMPDEST PUSH1 0x0 PUSH2 0x2E4 DUP5 DUP3 DUP6 ADD PUSH2 0x2AB JUMP JUMPDEST SWAP2 POP POP SWAP3 SWAP2 POP POP JUMP JUMPDEST PUSH1 0x0 DUP2 ISZERO ISZERO SWAP1 POP SWAP2 SWAP1 POP JUMP JUMPDEST PUSH2 0x302 DUP2 PUSH2 0x2ED JUMP JUMPDEST DUP3 MSTORE POP POP JUMP JUMPDEST PUSH1 0x0 PUSH1 0x20 DUP3 ADD SWAP1 POP PUSH2 0x31D PUSH1 0x0 DUP4 ADD DUP5 PUSH2 0x2F9 JUMP JUMPDEST SWAP3 SWAP2 POP POP JUMP INVALID LOG2 PUSH5 0x6970667358 0x22 SLT KECCAK256 ISZERO PUSH9 0xF1BF956360FEF3471E DUP14 RETURN ADDRESS 0xB5 DUP6 LT 0x29 SWAP3 CODECOPY ADDMOD 0xBA JUMP SHL 0xA9 0xD8 PUSH7 0xB14B6D73216473 PUSH16 0x6C634300081C00330000000000000000 "},"methodIdentifiers":{"supportsInterface(bytes4)":"01ffc9a7","test1Func1()":"19e3b533","test1Func10()":"87952d22","test1Func11()":"50eb3f43","test1Func12()":"81b5207d","test1Func13()":"19c841ab","test1Func14()":"51b68a4d","test1Func15()":"2cb83248","test1Func16()":"77e9d0d6","test1Func17()":"4484b3b9","test1Func18()":"9abf97aa","test1Func19()":"292c460d","test1Func2()":"0716c2ae","test1Func20()":"b0e8fcc7","test1Func3()":"11046047","test1Func4()":"cf3bbe18","test1Func5()":"24c1d5a7","test1Func6()":"cbb835f6","test1Func7()":"71a99d6f","test1Func8()":"db32da15","test1Func9()":"cd0bae09"}}}}}