{"contracts/facets/BurnOnTransactionFacet.sol":{"BurnOnTransactionFacet":{"abi":[{"anonymous":false,"inputs":[{"indexed":true,"internalType":"address","name":"sender","type":"address"},{"indexed":true,"internalType":"address","name":"recipient","type":"address"},{"indexed":false,"internalType":"uint256","name":"amountSent","type":"uint256"},{"indexed":false,"internalType":"uint256","name":"amountBurned","type":"uint256"}],"name":"BurnOnTransactionExecuted","type":"event"},{"inputs":[{"internalType":"uint256","name":"_burnPercent","type":"uint256"}],"name":"initializeBurnModule","outputs":[],"stateMutability":"nonpayable","type":"function"},{"inputs":[{"internalType":"address","name":"recipient","type":"address"},{"internalType":"uint256","name":"amount","type":"uint256"}],"name":"transfer","outputs":[{"internalType":"bool","name":"","type":"bool"}],"stateMutability":"nonpayable","type":"function"},{"inputs":[{"internalType":"uint256","name":"newBurnPercent","type":"uint256"}],"name":"updateBurnModule","outputs":[],"stateMutability":"nonpayable","type":"function"}],"evm":{"bytecode":{"linkReferences":{},"object":"6080604052348015600f57600080fd5b50610c298061001f6000396000f3fe608060405234801561001057600080fd5b50600436106100415760003560e01c806342069f8414610046578063a9059cbb14610062578063b23db85114610092575b600080fd5b610060600480360381019061005b919061069c565b6100ae565b005b61007c60048036038101906100779190610727565b61010e565b6040516100899190610782565b60405180910390f35b6100ac60048036038101906100a7919061069c565b6101d5565b005b60006100b8610282565b90506000816000015414610101576040517f08c379a00000000000000000000000000000000000000000000000000000000081526004016100f8906107fa565b60405180910390fd5b8181600001819055505050565b600080610119610282565b905060006127108260000154856101309190610849565b61013a91906108ba565b90506000818561014a91906108eb565b905061015633836102af565b6101613387836103b7565b8573ffffffffffffffffffffffffffffffffffffffff163373ffffffffffffffffffffffffffffffffffffffff167fd78edcb58476b2b1f1936f4acebc3e8c8b988fb8a4a561261bef33600be6d90783856040516101c092919061092e565b60405180910390a36001935050505092915050565b6101dd61056c565b60006101e7610282565b90506000816000015403610230576040517f08c379a0000000000000000000000000000000000000000000000000000000008152600401610227906109a3565b60405180910390fd5b612710821115610275576040517f08c379a000000000000000000000000000000000000000000000000000000000815260040161026c90610a0f565b60405180910390fd5b8181600001819055505050565b6000807f9bd60fdb676917b0f5c76299983696f49b4f92dc08605e34ade7813c0b0a14d790508091505090565b60006102b9610607565b9050818160000160008573ffffffffffffffffffffffffffffffffffffffff1673ffffffffffffffffffffffffffffffffffffffff16815260200190815260200160002054101561033f576040517f08c379a000000000000000000000000000000000000000000000000000000000815260040161033690610a7b565b60405180910390fd5b818160000160008573ffffffffffffffffffffffffffffffffffffffff1673ffffffffffffffffffffffffffffffffffffffff168152602001908152602001600020600082825461039091906108eb565b92505081905550818160010160008282546103ab91906108eb565b92505081905550505050565b60006103c1610607565b9050600073ffffffffffffffffffffffffffffffffffffffff168373ffffffffffffffffffffffffffffffffffffffff1603610432576040517f08c379a000000000000000000000000000000000000000000000000000000000815260040161042990610b0d565b60405180910390fd5b818160000160008673ffffffffffffffffffffffffffffffffffffffff1673ffffffffffffffffffffffffffffffffffffffff1681526020019081526020016000205410156104b6576040517f08c379a00000000000000000000000000000000000000000000000000000000081526004016104ad90610a7b565b60405180910390fd5b818160000160008673ffffffffffffffffffffffffffffffffffffffff1673ffffffffffffffffffffffffffffffffffffffff168152602001908152602001600020600082825461050791906108eb565b92505081905550818160000160008573ffffffffffffffffffffffffffffffffffffffff1673ffffffffffffffffffffffffffffffffffffffff168152602001908152602001600020600082825461055f9190610b2d565b9250508190555050505050565b610574610634565b60040160009054906101000a900473ffffffffffffffffffffffffffffffffffffffff1673ffffffffffffffffffffffffffffffffffffffff163373ffffffffffffffffffffffffffffffffffffffff1614610605576040517f08c379a00000000000000000000000000000000000000000000000000000000081526004016105fc90610bd3565b60405180910390fd5b565b6000807fa716b7cce20ffbe12e5c0af3eb2f57d81251cd975b53428558ae4ad51b4f942590508091505090565b6000807fc8fcad8db84d3cc18b4c41d551ea0ee66dd599cde068d998e57d5e09332c131c90508091505090565b600080fd5b6000819050919050565b61067981610666565b811461068457600080fd5b50565b60008135905061069681610670565b92915050565b6000602082840312156106b2576106b1610661565b5b60006106c084828501610687565b91505092915050565b600073ffffffffffffffffffffffffffffffffffffffff82169050919050565b60006106f4826106c9565b9050919050565b610704816106e9565b811461070f57600080fd5b50565b600081359050610721816106fb565b92915050565b6000806040838503121561073e5761073d610661565b5b600061074c85828601610712565b925050602061075d85828601610687565b9150509250929050565b60008115159050919050565b61077c81610767565b82525050565b60006020820190506107976000830184610773565b92915050565b600082825260208201905092915050565b7f416c726561647920696e697469616c697a656400000000000000000000000000600082015250565b60006107e460138361079d565b91506107ef826107ae565b602082019050919050565b60006020820190508181036000830152610813816107d7565b9050919050565b7f4e487b7100000000000000000000000000000000000000000000000000000000600052601160045260246000fd5b600061085482610666565b915061085f83610666565b925082820261086d81610666565b915082820484148315176108845761088361081a565b5b5092915050565b7f4e487b7100000000000000000000000000000000000000000000000000000000600052601260045260246000fd5b60006108c582610666565b91506108d083610666565b9250826108e0576108df61088b565b5b828204905092915050565b60006108f682610666565b915061090183610666565b92508282039050818111156109195761091861081a565b5b92915050565b61092881610666565b82525050565b6000604082019050610943600083018561091f565b610950602083018461091f565b9392505050565b7f4d6f64756c65206e6f7420696e697469616c697a656400000000000000000000600082015250565b600061098d60168361079d565b915061099882610957565b602082019050919050565b600060208201905081810360008301526109bc81610980565b9050919050565b7f496e76616c6964206275726e2072617465000000000000000000000000000000600082015250565b60006109f960118361079d565b9150610a04826109c3565b602082019050919050565b60006020820190508181036000830152610a28816109ec565b9050919050565b7f496e73756666696369656e742062616c616e6365000000000000000000000000600082015250565b6000610a6560148361079d565b9150610a7082610a2f565b602082019050919050565b60006020820190508181036000830152610a9481610a58565b9050919050565b7f45524332303a207472616e7366657220746f20746865207a65726f206164647260008201527f6573730000000000000000000000000000000000000000000000000000000000602082015250565b6000610af760238361079d565b9150610b0282610a9b565b604082019050919050565b60006020820190508181036000830152610b2681610aea565b9050919050565b6000610b3882610666565b9150610b4383610666565b9250828201905080821115610b5b57610b5a61081a565b5b92915050565b7f4c69624469616d6f6e643a204d75737420626520636f6e7472616374206f776e60008201527f6572000000000000000000000000000000000000000000000000000000000000602082015250565b6000610bbd60228361079d565b9150610bc882610b61565b604082019050919050565b60006020820190508181036000830152610bec81610bb0565b905091905056fea2646970667358221220f05dbf7dc478072d7374613004af15cb8332c81d176edfd304b9f6ee69dae91b64736f6c634300081c0033","opcodes":"PUSH1 0x80 PUSH1 0x40 MSTORE CALLVALUE DUP1 ISZERO PUSH1 0xF JUMPI PUSH1 0x0 DUP1 REVERT JUMPDEST POP PUSH2 0xC29 DUP1 PUSH2 0x1F PUSH1 0x0 CODECOPY PUSH1 0x0 RETURN INVALID PUSH1 0x80 PUSH1 0x40 MSTORE CALLVALUE DUP1 ISZERO PUSH2 0x10 JUMPI PUSH1 0x0 DUP1 REVERT JUMPDEST POP PUSH1 0x4 CALLDATASIZE LT PUSH2 0x41 JUMPI PUSH1 0x0 CALLDATALOAD PUSH1 0xE0 SHR DUP1 PUSH4 0x42069F84 EQ PUSH2 0x46 JUMPI DUP1 PUSH4 0xA9059CBB EQ PUSH2 0x62 JUMPI DUP1 PUSH4 0xB23DB851 EQ PUSH2 0x92 JUMPI JUMPDEST PUSH1 0x0 DUP1 REVERT JUMPDEST PUSH2 0x60 PUSH1 0x4 DUP1 CALLDATASIZE SUB DUP2 ADD SWAP1 PUSH2 0x5B SWAP2 SWAP1 PUSH2 0x69C JUMP JUMPDEST PUSH2 0xAE JUMP JUMPDEST STOP JUMPDEST PUSH2 0x7C PUSH1 0x4 DUP1 CALLDATASIZE SUB DUP2 ADD SWAP1 PUSH2 0x77 SWAP2 SWAP1 PUSH2 0x727 JUMP JUMPDEST PUSH2 0x10E JUMP JUMPDEST PUSH1 0x40 MLOAD PUSH2 0x89 SWAP2 SWAP1 PUSH2 0x782 JUMP JUMPDEST PUSH1 0x40 MLOAD DUP1 SWAP2 SUB SWAP1 RETURN JUMPDEST PUSH2 0xAC PUSH1 0x4 DUP1 CALLDATASIZE SUB DUP2 ADD SWAP1 PUSH2 0xA7 SWAP2 SWAP1 PUSH2 0x69C JUMP JUMPDEST PUSH2 0x1D5 JUMP JUMPDEST STOP JUMPDEST PUSH1 0x0 PUSH2 0xB8 PUSH2 0x282 JUMP JUMPDEST SWAP1 POP PUSH1 0x0 DUP2 PUSH1 0x0 ADD SLOAD EQ PUSH2 0x101 JUMPI PUSH1 0x40 MLOAD PUSH32 0x8C379A000000000000000000000000000000000000000000000000000000000 DUP2 MSTORE PUSH1 0x4 ADD PUSH2 0xF8 SWAP1 PUSH2 0x7FA JUMP JUMPDEST PUSH1 0x40 MLOAD DUP1 SWAP2 SUB SWAP1 REVERT JUMPDEST DUP2 DUP2 PUSH1 0x0 ADD DUP2 SWAP1 SSTORE POP POP POP JUMP JUMPDEST PUSH1 0x0 DUP1 PUSH2 0x119 PUSH2 0x282 JUMP JUMPDEST SWAP1 POP PUSH1 0x0 PUSH2 0x2710 DUP3 PUSH1 0x0 ADD SLOAD DUP6 PUSH2 0x130 SWAP2 SWAP1 PUSH2 0x849 JUMP JUMPDEST PUSH2 0x13A SWAP2 SWAP1 PUSH2 0x8BA JUMP JUMPDEST SWAP1 POP PUSH1 0x0 DUP2 DUP6 PUSH2 0x14A SWAP2 SWAP1 PUSH2 0x8EB JUMP JUMPDEST SWAP1 POP PUSH2 0x156 CALLER DUP4 PUSH2 0x2AF JUMP JUMPDEST PUSH2 0x161 CALLER DUP8 DUP4 PUSH2 0x3B7 JUMP JUMPDEST DUP6 PUSH20 0xFFFFFFFFFFFFFFFFFFFFFFFFFFFFFFFFFFFFFFFF AND CALLER PUSH20 0xFFFFFFFFFFFFFFFFFFFFFFFFFFFFFFFFFFFFFFFF AND PUSH32 0xD78EDCB58476B2B1F1936F4ACEBC3E8C8B988FB8A4A561261BEF33600BE6D907 DUP4 DUP6 PUSH1 0x40 MLOAD PUSH2 0x1C0 SWAP3 SWAP2 SWAP1 PUSH2 0x92E JUMP JUMPDEST PUSH1 0x40 MLOAD DUP1 SWAP2 SUB SWAP1 LOG3 PUSH1 0x1 SWAP4 POP POP POP POP SWAP3 SWAP2 POP POP JUMP JUMPDEST PUSH2 0x1DD PUSH2 0x56C JUMP JUMPDEST PUSH1 0x0 PUSH2 0x1E7 PUSH2 0x282 JUMP JUMPDEST SWAP1 POP PUSH1 0x0 DUP2 PUSH1 0x0 ADD SLOAD SUB PUSH2 0x230 JUMPI PUSH1 0x40 MLOAD PUSH32 0x8C379A000000000000000000000000000000000000000000000000000000000 DUP2 MSTORE PUSH1 0x4 ADD PUSH2 0x227 SWAP1 PUSH2 0x9A3 JUMP JUMPDEST PUSH1 0x40 MLOAD DUP1 SWAP2 SUB SWAP1 REVERT JUMPDEST PUSH2 0x2710 DUP3 GT ISZERO PUSH2 0x275 JUMPI PUSH1 0x40 MLOAD PUSH32 0x8C379A000000000000000000000000000000000000000000000000000000000 DUP2 MSTORE PUSH1 0x4 ADD PUSH2 0x26C SWAP1 PUSH2 0xA0F JUMP JUMPDEST PUSH1 0x40 MLOAD DUP1 SWAP2 SUB SWAP1 REVERT JUMPDEST DUP2 DUP2 PUSH1 0x0 ADD DUP2 SWAP1 SSTORE POP POP POP JUMP JUMPDEST PUSH1 0x0 DUP1 PUSH32 0x9BD60FDB676917B0F5C76299983696F49B4F92DC08605E34ADE7813C0B0A14D7 SWAP1 POP DUP1 SWAP2 POP POP SWAP1 JUMP JUMPDEST PUSH1 0x0 PUSH2 0x2B9 PUSH2 0x607 JUMP JUMPDEST SWAP1 POP DUP2 DUP2 PUSH1 0x0 ADD PUSH1 0x0 DUP6 PUSH20 0xFFFFFFFFFFFFFFFFFFFFFFFFFFFFFFFFFFFFFFFF AND PUSH20 0xFFFFFFFFFFFFFFFFFFFFFFFFFFFFFFFFFFFFFFFF AND DUP2 MSTORE PUSH1 0x20 ADD SWAP1 DUP2 MSTORE PUSH1 0x20 ADD PUSH1 0x0 KECCAK256 SLOAD LT ISZERO PUSH2 0x33F JUMPI PUSH1 0x40 MLOAD PUSH32 0x8C379A000000000000000000000000000000000000000000000000000000000 DUP2 MSTORE PUSH1 0x4 ADD PUSH2 0x336 SWAP1 PUSH2 0xA7B JUMP JUMPDEST PUSH1 0x40 MLOAD DUP1 SWAP2 SUB SWAP1 REVERT JUMPDEST DUP2 DUP2 PUSH1 0x0 ADD PUSH1 0x0 DUP6 PUSH20 0xFFFFFFFFFFFFFFFFFFFFFFFFFFFFFFFFFFFFFFFF AND PUSH20 0xFFFFFFFFFFFFFFFFFFFFFFFFFFFFFFFFFFFFFFFF AND DUP2 MSTORE PUSH1 0x20 ADD SWAP1 DUP2 MSTORE PUSH1 0x20 ADD PUSH1 0x0 KECCAK256 PUSH1 0x0 DUP3 DUP3 SLOAD PUSH2 0x390 SWAP2 SWAP1 PUSH2 0x8EB JUMP JUMPDEST SWAP3 POP POP DUP2 SWAP1 SSTORE POP DUP2 DUP2 PUSH1 0x1 ADD PUSH1 0x0 DUP3 DUP3 SLOAD PUSH2 0x3AB SWAP2 SWAP1 PUSH2 0x8EB JUMP JUMPDEST SWAP3 POP POP DUP2 SWAP1 SSTORE POP POP POP POP JUMP JUMPDEST PUSH1 0x0 PUSH2 0x3C1 PUSH2 0x607 JUMP JUMPDEST SWAP1 POP PUSH1 0x0 PUSH20 0xFFFFFFFFFFFFFFFFFFFFFFFFFFFFFFFFFFFFFFFF AND DUP4 PUSH20 0xFFFFFFFFFFFFFFFFFFFFFFFFFFFFFFFFFFFFFFFF AND SUB PUSH2 0x432 JUMPI PUSH1 0x40 MLOAD PUSH32 0x8C379A000000000000000000000000000000000000000000000000000000000 DUP2 MSTORE PUSH1 0x4 ADD PUSH2 0x429 SWAP1 PUSH2 0xB0D JUMP JUMPDEST PUSH1 0x40 MLOAD DUP1 SWAP2 SUB SWAP1 REVERT JUMPDEST DUP2 DUP2 PUSH1 0x0 ADD PUSH1 0x0 DUP7 PUSH20 0xFFFFFFFFFFFFFFFFFFFFFFFFFFFFFFFFFFFFFFFF AND PUSH20 0xFFFFFFFFFFFFFFFFFFFFFFFFFFFFFFFFFFFFFFFF AND DUP2 MSTORE PUSH1 0x20 ADD SWAP1 DUP2 MSTORE PUSH1 0x20 ADD PUSH1 0x0 KECCAK256 SLOAD LT ISZERO PUSH2 0x4B6 JUMPI PUSH1 0x40 MLOAD PUSH32 0x8C379A000000000000000000000000000000000000000000000000000000000 DUP2 MSTORE PUSH1 0x4 ADD PUSH2 0x4AD SWAP1 PUSH2 0xA7B JUMP JUMPDEST PUSH1 0x40 MLOAD DUP1 SWAP2 SUB SWAP1 REVERT JUMPDEST DUP2 DUP2 PUSH1 0x0 ADD PUSH1 0x0 DUP7 PUSH20 0xFFFFFFFFFFFFFFFFFFFFFFFFFFFFFFFFFFFFFFFF AND PUSH20 0xFFFFFFFFFFFFFFFFFFFFFFFFFFFFFFFFFFFFFFFF AND DUP2 MSTORE PUSH1 0x20 ADD SWAP1 DUP2 MSTORE PUSH1 0x20 ADD PUSH1 0x0 KECCAK256 PUSH1 0x0 DUP3 DUP3 SLOAD PUSH2 0x507 SWAP2 SWAP1 PUSH2 0x8EB JUMP JUMPDEST SWAP3 POP POP DUP2 SWAP1 SSTORE POP DUP2 DUP2 PUSH1 0x0 ADD PUSH1 0x0 DUP6 PUSH20 0xFFFFFFFFFFFFFFFFFFFFFFFFFFFFFFFFFFFFFFFF AND PUSH20 0xFFFFFFFFFFFFFFFFFFFFFFFFFFFFFFFFFFFFFFFF AND DUP2 MSTORE PUSH1 0x20 ADD SWAP1 DUP2 MSTORE PUSH1 0x20 ADD PUSH1 0x0 KECCAK256 PUSH1 0x0 DUP3 DUP3 SLOAD PUSH2 0x55F SWAP2 SWAP1 PUSH2 0xB2D JUMP JUMPDEST SWAP3 POP POP DUP2 SWAP1 SSTORE POP POP POP POP POP JUMP JUMPDEST PUSH2 0x574 PUSH2 0x634 JUMP JUMPDEST PUSH1 0x4 ADD PUSH1 0x0 SWAP1 SLOAD SWAP1 PUSH2 0x100 EXP SWAP1 DIV PUSH20 0xFFFFFFFFFFFFFFFFFFFFFFFFFFFFFFFFFFFFFFFF AND PUSH20 0xFFFFFFFFFFFFFFFFFFFFFFFFFFFFFFFFFFFFFFFF AND CALLER PUSH20 0xFFFFFFFFFFFFFFFFFFFFFFFFFFFFFFFFFFFFFFFF AND EQ PUSH2 0x605 JUMPI PUSH1 0x40 MLOAD PUSH32 0x8C379A000000000000000000000000000000000000000000000000000000000 DUP2 MSTORE PUSH1 0x4 ADD PUSH2 0x5FC SWAP1 PUSH2 0xBD3 JUMP JUMPDEST PUSH1 0x40 MLOAD DUP1 SWAP2 SUB SWAP1 REVERT JUMPDEST JUMP JUMPDEST PUSH1 0x0 DUP1 PUSH32 0xA716B7CCE20FFBE12E5C0AF3EB2F57D81251CD975B53428558AE4AD51B4F9425 SWAP1 POP DUP1 SWAP2 POP POP SWAP1 JUMP JUMPDEST PUSH1 0x0 DUP1 PUSH32 0xC8FCAD8DB84D3CC18B4C41D551EA0EE66DD599CDE068D998E57D5E09332C131C SWAP1 POP DUP1 SWAP2 POP POP SWAP1 JUMP JUMPDEST PUSH1 0x0 DUP1 REVERT JUMPDEST PUSH1 0x0 DUP2 SWAP1 POP SWAP2 SWAP1 POP JUMP JUMPDEST PUSH2 0x679 DUP2 PUSH2 0x666 JUMP JUMPDEST DUP2 EQ PUSH2 0x684 JUMPI PUSH1 0x0 DUP1 REVERT JUMPDEST POP JUMP JUMPDEST PUSH1 0x0 DUP2 CALLDATALOAD SWAP1 POP PUSH2 0x696 DUP2 PUSH2 0x670 JUMP JUMPDEST SWAP3 SWAP2 POP POP JUMP JUMPDEST PUSH1 0x0 PUSH1 0x20 DUP3 DUP5 SUB SLT ISZERO PUSH2 0x6B2 JUMPI PUSH2 0x6B1 PUSH2 0x661 JUMP JUMPDEST JUMPDEST PUSH1 0x0 PUSH2 0x6C0 DUP5 DUP3 DUP6 ADD PUSH2 0x687 JUMP JUMPDEST SWAP2 POP POP SWAP3 SWAP2 POP POP JUMP JUMPDEST PUSH1 0x0 PUSH20 0xFFFFFFFFFFFFFFFFFFFFFFFFFFFFFFFFFFFFFFFF DUP3 AND SWAP1 POP SWAP2 SWAP1 POP JUMP JUMPDEST PUSH1 0x0 PUSH2 0x6F4 DUP3 PUSH2 0x6C9 JUMP JUMPDEST SWAP1 POP SWAP2 SWAP1 POP JUMP JUMPDEST PUSH2 0x704 DUP2 PUSH2 0x6E9 JUMP JUMPDEST DUP2 EQ PUSH2 0x70F JUMPI PUSH1 0x0 DUP1 REVERT JUMPDEST POP JUMP JUMPDEST PUSH1 0x0 DUP2 CALLDATALOAD SWAP1 POP PUSH2 0x721 DUP2 PUSH2 0x6FB JUMP JUMPDEST SWAP3 SWAP2 POP POP JUMP JUMPDEST PUSH1 0x0 DUP1 PUSH1 0x40 DUP4 DUP6 SUB SLT ISZERO PUSH2 0x73E JUMPI PUSH2 0x73D PUSH2 0x661 JUMP JUMPDEST JUMPDEST PUSH1 0x0 PUSH2 0x74C DUP6 DUP3 DUP7 ADD PUSH2 0x712 JUMP JUMPDEST SWAP3 POP POP PUSH1 0x20 PUSH2 0x75D DUP6 DUP3 DUP7 ADD PUSH2 0x687 JUMP JUMPDEST SWAP2 POP POP SWAP3 POP SWAP3 SWAP1 POP JUMP JUMPDEST PUSH1 0x0 DUP2 ISZERO ISZERO SWAP1 POP SWAP2 SWAP1 POP JUMP JUMPDEST PUSH2 0x77C DUP2 PUSH2 0x767 JUMP JUMPDEST DUP3 MSTORE POP POP JUMP JUMPDEST PUSH1 0x0 PUSH1 0x20 DUP3 ADD SWAP1 POP PUSH2 0x797 PUSH1 0x0 DUP4 ADD DUP5 PUSH2 0x773 JUMP JUMPDEST SWAP3 SWAP2 POP POP JUMP JUMPDEST PUSH1 0x0 DUP3 DUP3 MSTORE PUSH1 0x20 DUP3 ADD SWAP1 POP SWAP3 SWAP2 POP POP JUMP JUMPDEST PUSH32 0x416C726561647920696E697469616C697A656400000000000000000000000000 PUSH1 0x0 DUP3 ADD MSTORE POP JUMP JUMPDEST PUSH1 0x0 PUSH2 0x7E4 PUSH1 0x13 DUP4 PUSH2 0x79D JUMP JUMPDEST SWAP2 POP PUSH2 0x7EF DUP3 PUSH2 0x7AE JUMP JUMPDEST PUSH1 0x20 DUP3 ADD SWAP1 POP SWAP2 SWAP1 POP JUMP JUMPDEST PUSH1 0x0 PUSH1 0x20 DUP3 ADD SWAP1 POP DUP2 DUP2 SUB PUSH1 0x0 DUP4 ADD MSTORE PUSH2 0x813 DUP2 PUSH2 0x7D7 JUMP JUMPDEST SWAP1 POP SWAP2 SWAP1 POP JUMP JUMPDEST PUSH32 0x4E487B7100000000000000000000000000000000000000000000000000000000 PUSH1 0x0 MSTORE PUSH1 0x11 PUSH1 0x4 MSTORE PUSH1 0x24 PUSH1 0x0 REVERT JUMPDEST PUSH1 0x0 PUSH2 0x854 DUP3 PUSH2 0x666 JUMP JUMPDEST SWAP2 POP PUSH2 0x85F DUP4 PUSH2 0x666 JUMP JUMPDEST SWAP3 POP DUP3 DUP3 MUL PUSH2 0x86D DUP2 PUSH2 0x666 JUMP JUMPDEST SWAP2 POP DUP3 DUP3 DIV DUP5 EQ DUP4 ISZERO OR PUSH2 0x884 JUMPI PUSH2 0x883 PUSH2 0x81A JUMP JUMPDEST JUMPDEST POP SWAP3 SWAP2 POP POP JUMP JUMPDEST PUSH32 0x4E487B7100000000000000000000000000000000000000000000000000000000 PUSH1 0x0 MSTORE PUSH1 0x12 PUSH1 0x4 MSTORE PUSH1 0x24 PUSH1 0x0 REVERT JUMPDEST PUSH1 0x0 PUSH2 0x8C5 DUP3 PUSH2 0x666 JUMP JUMPDEST SWAP2 POP PUSH2 0x8D0 DUP4 PUSH2 0x666 JUMP JUMPDEST SWAP3 POP DUP3 PUSH2 0x8E0 JUMPI PUSH2 0x8DF PUSH2 0x88B JUMP JUMPDEST JUMPDEST DUP3 DUP3 DIV SWAP1 POP SWAP3 SWAP2 POP POP JUMP JUMPDEST PUSH1 0x0 PUSH2 0x8F6 DUP3 PUSH2 0x666 JUMP JUMPDEST SWAP2 POP PUSH2 0x901 DUP4 PUSH2 0x666 JUMP JUMPDEST SWAP3 POP DUP3 DUP3 SUB SWAP1 POP DUP2 DUP2 GT ISZERO PUSH2 0x919 JUMPI PUSH2 0x918 PUSH2 0x81A JUMP JUMPDEST JUMPDEST SWAP3 SWAP2 POP POP JUMP JUMPDEST PUSH2 0x928 DUP2 PUSH2 0x666 JUMP JUMPDEST DUP3 MSTORE POP POP JUMP JUMPDEST PUSH1 0x0 PUSH1 0x40 DUP3 ADD SWAP1 POP PUSH2 0x943 PUSH1 0x0 DUP4 ADD DUP6 PUSH2 0x91F JUMP JUMPDEST PUSH2 0x950 PUSH1 0x20 DUP4 ADD DUP5 PUSH2 0x91F JUMP JUMPDEST SWAP4 SWAP3 POP POP POP JUMP JUMPDEST PUSH32 0x4D6F64756C65206E6F7420696E697469616C697A656400000000000000000000 PUSH1 0x0 DUP3 ADD MSTORE POP JUMP JUMPDEST PUSH1 0x0 PUSH2 0x98D PUSH1 0x16 DUP4 PUSH2 0x79D JUMP JUMPDEST SWAP2 POP PUSH2 0x998 DUP3 PUSH2 0x957 JUMP JUMPDEST PUSH1 0x20 DUP3 ADD SWAP1 POP SWAP2 SWAP1 POP JUMP JUMPDEST PUSH1 0x0 PUSH1 0x20 DUP3 ADD SWAP1 POP DUP2 DUP2 SUB PUSH1 0x0 DUP4 ADD MSTORE PUSH2 0x9BC DUP2 PUSH2 0x980 JUMP JUMPDEST SWAP1 POP SWAP2 SWAP1 POP JUMP JUMPDEST PUSH32 0x496E76616C6964206275726E2072617465000000000000000000000000000000 PUSH1 0x0 DUP3 ADD MSTORE POP JUMP JUMPDEST PUSH1 0x0 PUSH2 0x9F9 PUSH1 0x11 DUP4 PUSH2 0x79D JUMP JUMPDEST SWAP2 POP PUSH2 0xA04 DUP3 PUSH2 0x9C3 JUMP JUMPDEST PUSH1 0x20 DUP3 ADD SWAP1 POP SWAP2 SWAP1 POP JUMP JUMPDEST PUSH1 0x0 PUSH1 0x20 DUP3 ADD SWAP1 POP DUP2 DUP2 SUB PUSH1 0x0 DUP4 ADD MSTORE PUSH2 0xA28 DUP2 PUSH2 0x9EC JUMP JUMPDEST SWAP1 POP SWAP2 SWAP1 POP JUMP JUMPDEST PUSH32 0x496E73756666696369656E742062616C616E6365000000000000000000000000 PUSH1 0x0 DUP3 ADD MSTORE POP JUMP JUMPDEST PUSH1 0x0 PUSH2 0xA65 PUSH1 0x14 DUP4 PUSH2 0x79D JUMP JUMPDEST SWAP2 POP PUSH2 0xA70 DUP3 PUSH2 0xA2F JUMP JUMPDEST PUSH1 0x20 DUP3 ADD SWAP1 POP SWAP2 SWAP1 POP JUMP JUMPDEST PUSH1 0x0 PUSH1 0x20 DUP3 ADD SWAP1 POP DUP2 DUP2 SUB PUSH1 0x0 DUP4 ADD MSTORE PUSH2 0xA94 DUP2 PUSH2 0xA58 JUMP JUMPDEST SWAP1 POP SWAP2 SWAP1 POP JUMP JUMPDEST PUSH32 0x45524332303A207472616E7366657220746F20746865207A65726F2061646472 PUSH1 0x0 DUP3 ADD MSTORE PUSH32 0x6573730000000000000000000000000000000000000000000000000000000000 PUSH1 0x20 DUP3 ADD MSTORE POP JUMP JUMPDEST PUSH1 0x0 PUSH2 0xAF7 PUSH1 0x23 DUP4 PUSH2 0x79D JUMP JUMPDEST SWAP2 POP PUSH2 0xB02 DUP3 PUSH2 0xA9B JUMP JUMPDEST PUSH1 0x40 DUP3 ADD SWAP1 POP SWAP2 SWAP1 POP JUMP JUMPDEST PUSH1 0x0 PUSH1 0x20 DUP3 ADD SWAP1 POP DUP2 DUP2 SUB PUSH1 0x0 DUP4 ADD MSTORE PUSH2 0xB26 DUP2 PUSH2 0xAEA JUMP JUMPDEST SWAP1 POP SWAP2 SWAP1 POP JUMP JUMPDEST PUSH1 0x0 PUSH2 0xB38 DUP3 PUSH2 0x666 JUMP JUMPDEST SWAP2 POP PUSH2 0xB43 DUP4 PUSH2 0x666 JUMP JUMPDEST SWAP3 POP DUP3 DUP3 ADD SWAP1 POP DUP1 DUP3 GT ISZERO PUSH2 0xB5B JUMPI PUSH2 0xB5A PUSH2 0x81A JUMP JUMPDEST JUMPDEST SWAP3 SWAP2 POP POP JUMP JUMPDEST PUSH32 0x4C69624469616D6F6E643A204D75737420626520636F6E7472616374206F776E PUSH1 0x0 DUP3 ADD MSTORE PUSH32 0x6572000000000000000000000000000000000000000000000000000000000000 PUSH1 0x20 DUP3 ADD MSTORE POP JUMP JUMPDEST PUSH1 0x0 PUSH2 0xBBD PUSH1 0x22 DUP4 PUSH2 0x79D JUMP JUMPDEST SWAP2 POP PUSH2 0xBC8 DUP3 PUSH2 0xB61 JUMP JUMPDEST PUSH1 0x40 DUP3 ADD SWAP1 POP SWAP2 SWAP1 POP JUMP JUMPDEST PUSH1 0x0 PUSH1 0x20 DUP3 ADD SWAP1 POP DUP2 DUP2 SUB PUSH1 0x0 DUP4 ADD MSTORE PUSH2 0xBEC DUP2 PUSH2 0xBB0 JUMP JUMPDEST SWAP1 POP SWAP2 SWAP1 POP JUMP INVALID LOG2 PUSH5 0x6970667358 0x22 SLT KECCAK256 CREATE TSTORE 0xBF PUSH30 0xC478072D7374613004AF15CB8332C81D176EDFD304B9F6EE69DAE91B6473 PUSH16 0x6C634300081C00330000000000000000 "},"methodIdentifiers":{"initializeBurnModule(uint256)":"42069f84","transfer(address,uint256)":"a9059cbb","updateBurnModule(uint256)":"b23db851"}}}}}