{
  "_format": "hh-sol-artifact-1",
  "contractName": "ModuleToggleFacet",
  "sourceName": "contracts/facets/ModuleToggleFacet.sol",
  "abi": [
    {
      "anonymous": false,
      "inputs": [
        {
          "indexed": true,
          "internalType": "bytes32",
          "name": "module",
          "type": "bytes32"
        },
        {
          "indexed": false,
          "internalType": "bool",
          "name": "enabled",
          "type": "bool"
        }
      ],
      "name": "ModuleToggled",
      "type": "event"
    },
    {
      "inputs": [
        {
          "internalType": "bytes32",
          "name": "module",
          "type": "bytes32"
        }
      ],
      "name": "isModuleEnabled",
      "outputs": [
        {
          "internalType": "bool",
          "name": "",
          "type": "bool"
        }
      ],
      "stateMutability": "view",
      "type": "function"
    },
    {
      "inputs": [
        {
          "internalType": "bytes32",
          "name": "module",
          "type": "bytes32"
        },
        {
          "internalType": "bool",
          "name": "enabled",
          "type": "bool"
        }
      ],
      "name": "setModuleState",
      "outputs": [],
      "stateMutability": "nonpayable",
      "type": "function"
    }
  ],
  "bytecode": "0x6080604052348015600f57600080fd5b506104108061001f6000396000f3fe608060405234801561001057600080fd5b50600436106100365760003560e01c806366e2d32e1461003b578063b6450b8d14610057575b600080fd5b610055600480360381019061005091906102a0565b610087565b005b610071600480360381019061006c91906102e0565b610105565b60405161007e919061031c565b60405180910390f35b61008f610138565b60006100996101d3565b90508181600001600085815260200190815260200160002060006101000a81548160ff021916908315150217905550827fa00abd7999b717a3616062d1fdb7e63633ddef38523b2dbdeae3f7f7ead97f1f836040516100f8919061031c565b60405180910390a2505050565b600061010f6101d3565b600001600083815260200190815260200160002060009054906101000a900460ff169050919050565b610140610200565b60040160009054906101000a900473ffffffffffffffffffffffffffffffffffffffff1673ffffffffffffffffffffffffffffffffffffffff163373ffffffffffffffffffffffffffffffffffffffff16146101d1576040517f08c379a00000000000000000000000000000000000000000000000000000000081526004016101c8906103ba565b60405180910390fd5b565b6000807fcaf4c170c288e7311224258e07b7e0970a76cfa33607c955afb3f1a66eabc18290508091505090565b6000807fc8fcad8db84d3cc18b4c41d551ea0ee66dd599cde068d998e57d5e09332c131c90508091505090565b600080fd5b6000819050919050565b61024581610232565b811461025057600080fd5b50565b6000813590506102628161023c565b92915050565b60008115159050919050565b61027d81610268565b811461028857600080fd5b50565b60008135905061029a81610274565b92915050565b600080604083850312156102b7576102b661022d565b5b60006102c585828601610253565b92505060206102d68582860161028b565b9150509250929050565b6000602082840312156102f6576102f561022d565b5b600061030484828501610253565b91505092915050565b61031681610268565b82525050565b6000602082019050610331600083018461030d565b92915050565b600082825260208201905092915050565b7f4c69624469616d6f6e643a204d75737420626520636f6e7472616374206f776e60008201527f6572000000000000000000000000000000000000000000000000000000000000602082015250565b60006103a4602283610337565b91506103af82610348565b604082019050919050565b600060208201905081810360008301526103d381610397565b905091905056fea2646970667358221220b8c59f516e7f0dce6bd633b763b8a5915e80c019575324b8c711f52b0452c42064736f6c634300081c0033",
  "linkReferences": {},
  "deployedLinkReferences": {}
}