{
  "_format": "hh-sol-artifact-1",
  "contractName": "ModuleToggleFacet",
  "sourceName": "contracts/facets/ModuleToggleFacet.sol",
  "abi": [
    {
      "inputs": [
        {
          "internalType": "address",
          "name": "_initializationContractAddress",
          "type": "address"
        },
        {
          "internalType": "bytes",
          "name": "_calldata",
          "type": "bytes"
        }
      ],
      "name": "InitializationFunctionReverted",
      "type": "error"
    },
    {
      "anonymous": false,
      "inputs": [
        {
          "components": [
            {
              "internalType": "address",
              "name": "facetAddress",
              "type": "address"
            },
            {
              "internalType": "enum IDiamondCut.FacetCutAction",
              "name": "action",
              "type": "uint8"
            },
            {
              "internalType": "bytes4[]",
              "name": "functionSelectors",
              "type": "bytes4[]"
            }
          ],
          "indexed": false,
          "internalType": "struct IDiamondCut.FacetCut[]",
          "name": "_diamondCut",
          "type": "tuple[]"
        },
        {
          "indexed": false,
          "internalType": "address",
          "name": "_init",
          "type": "address"
        },
        {
          "indexed": false,
          "internalType": "bytes",
          "name": "_calldata",
          "type": "bytes"
        }
      ],
      "name": "DiamondCut",
      "type": "event"
    },
    {
      "anonymous": false,
      "inputs": [
        {
          "indexed": true,
          "internalType": "bytes32",
          "name": "module",
          "type": "bytes32"
        },
        {
          "indexed": false,
          "internalType": "bool",
          "name": "enabled",
          "type": "bool"
        }
      ],
      "name": "ModuleToggled",
      "type": "event"
    },
    {
      "inputs": [
        {
          "internalType": "bytes32",
          "name": "module",
          "type": "bytes32"
        }
      ],
      "name": "isModuleEnabled",
      "outputs": [
        {
          "internalType": "bool",
          "name": "",
          "type": "bool"
        }
      ],
      "stateMutability": "view",
      "type": "function"
    },
    {
      "inputs": [
        {
          "internalType": "bytes32",
          "name": "module",
          "type": "bytes32"
        },
        {
          "internalType": "address",
          "name": "activeFacet",
          "type": "address"
        },
        {
          "internalType": "address",
          "name": "baseFacet",
          "type": "address"
        },
        {
          "internalType": "bytes4[]",
          "name": "selectors",
          "type": "bytes4[]"
        }
      ],
      "name": "setModuleConfiguration",
      "outputs": [],
      "stateMutability": "nonpayable",
      "type": "function"
    },
    {
      "inputs": [
        {
          "internalType": "bytes32",
          "name": "module",
          "type": "bytes32"
        },
        {
          "internalType": "bool",
          "name": "enabled",
          "type": "bool"
        }
      ],
      "name": "setModuleState",
      "outputs": [],
      "stateMutability": "nonpayable",
      "type": "function"
    }
  ],
  "bytecode": "0x6080604052348015600f57600080fd5b506127da8061001f6000396000f3fe608060405234801561001057600080fd5b50600436106100415760003560e01c806366e2d32e14610046578063b6450b8d14610062578063dd85f10914610092575b600080fd5b610060600480360381019061005b9190611aae565b6100ae565b005b61007c60048036038101906100779190611aee565b61039c565b6040516100899190611b2a565b60405180910390f35b6100ac60048036038101906100a79190611c08565b6103cf565b005b6100b6610536565b60006100c06105d1565b90508181600001600085815260200190815260200160002060006101000a81548160ff021916908315150217905550827fa00abd7999b717a3616062d1fdb7e63633ddef38523b2dbdeae3f7f7ead97f1f8360405161011f9190611b2a565b60405180910390a260008160010160008581526020019081526020016000206040518060600160405290816000820160009054906101000a900473ffffffffffffffffffffffffffffffffffffffff1673ffffffffffffffffffffffffffffffffffffffff1673ffffffffffffffffffffffffffffffffffffffff1681526020016001820160009054906101000a900473ffffffffffffffffffffffffffffffffffffffff1673ffffffffffffffffffffffffffffffffffffffff1673ffffffffffffffffffffffffffffffffffffffff1681526020016002820180548060200260200160405190810160405280929190818152602001828054801561028657602002820191906000526020600020906000905b82829054906101000a900460e01b7bffffffffffffffffffffffffffffffffffffffffffffffffffffffff1916815260200190600401906020826003010492830192600103820291508084116102335790505b505050505081525050905060008160400151511115610396576000600167ffffffffffffffff8111156102bc576102bb611c90565b5b6040519080825280602002602001820160405280156102f557816020015b6102e2611923565b8152602001906001900390816102da5790505b50905060008461030957826020015161030f565b82600001515b905060405180606001604052808273ffffffffffffffffffffffffffffffffffffffff1681526020016001600281111561034c5761034b611cbf565b5b815260200184604001518152508260008151811061036d5761036c611cee565b5b6020026020010181905250610393826000604051806020016040528060008152506105fe565b50505b50505050565b60006103a66105d1565b600001600083815260200190815260200160002060009054906101000a900460ff169050919050565b6103d7610536565b60006103e16105d1565b905060405180606001604052808673ffffffffffffffffffffffffffffffffffffffff1681526020018573ffffffffffffffffffffffffffffffffffffffff168152602001848480806020026020016040519081016040528093929190818152602001838360200280828437600081840152601f19601f8201169050808301925050505050505081525081600101600088815260200190815260200160002060008201518160000160006101000a81548173ffffffffffffffffffffffffffffffffffffffff021916908373ffffffffffffffffffffffffffffffffffffffff16021790555060208201518160010160006101000a81548173ffffffffffffffffffffffffffffffffffffffff021916908373ffffffffffffffffffffffffffffffffffffffff160217905550604082015181600201908051906020019061052a92919061196c565b50905050505050505050565b61053e610827565b60040160009054906101000a900473ffffffffffffffffffffffffffffffffffffffff1673ffffffffffffffffffffffffffffffffffffffff163373ffffffffffffffffffffffffffffffffffffffff16146105cf576040517f08c379a00000000000000000000000000000000000000000000000000000000081526004016105c690611da0565b60405180910390fd5b565b6000807fcaf4c170c288e7311224258e07b7e0970a76cfa33607c955afb3f1a66eabc18290508091505090565b60005b83518110156107dc57600084828151811061061f5761061e611cee565b5b60200260200101516020015190506000600281111561064157610640611cbf565b5b81600281111561065457610653611cbf565b5b036106a45761069f85838151811061066f5761066e611cee565b5b60200260200101516000015186848151811061068e5761068d611cee565b5b602002602001015160400151610854565b6107ce565b600160028111156106b8576106b7611cbf565b5b8160028111156106cb576106ca611cbf565b5b0361071b576107168583815181106106e6576106e5611cee565b5b60200260200101516000015186848151811061070557610704611cee565b5b602002602001015160400151610ac5565b6107cd565b60028081111561072e5761072d611cbf565b5b81600281111561074157610740611cbf565b5b036107915761078c85838151811061075c5761075b611cee565b5b60200260200101516000015186848151811061077b5761077a611cee565b5b602002602001015160400151610d40565b6107cc565b6040517f08c379a00000000000000000000000000000000000000000000000000000000081526004016107c390611e32565b60405180910390fd5b5b5b508080600101915050610601565b507f8faa70878671ccd212d20771b795c50af8fd3ff6cf27f4bde57e5d4de0aeb67383838360405161081093929190612144565b60405180910390a16108228282610ec5565b505050565b6000807fc8fcad8db84d3cc18b4c41d551ea0ee66dd599cde068d998e57d5e09332c131c90508091505090565b6000815111610898576040517f08c379a000000000000000000000000000000000000000000000000000000000815260040161088f906121fb565b60405180910390fd5b60006108a2610827565b9050600073ffffffffffffffffffffffffffffffffffffffff168373ffffffffffffffffffffffffffffffffffffffff1603610913576040517f08c379a000000000000000000000000000000000000000000000000000000000815260040161090a9061228d565b60405180910390fd5b60008160010160008573ffffffffffffffffffffffffffffffffffffffff1673ffffffffffffffffffffffffffffffffffffffff1681526020019081526020016000206000018054905090506000816bffffffffffffffffffffffff16036109805761097f8285610fe7565b5b60005b8351811015610abe5760008482815181106109a1576109a0611cee565b5b602002602001015190506000846000016000837bffffffffffffffffffffffffffffffffffffffffffffffffffffffff19167bffffffffffffffffffffffffffffffffffffffffffffffffffffffff1916815260200190815260200160002060000160009054906101000a900473ffffffffffffffffffffffffffffffffffffffff169050600073ffffffffffffffffffffffffffffffffffffffff168173ffffffffffffffffffffffffffffffffffffffff1614610a95576040517f08c379a0000000000000000000000000000000000000000000000000000000008152600401610a8c9061231f565b60405180910390fd5b610aa18583868a6110c2565b8380610aac90612386565b94505050508080600101915050610983565b5050505050565b6000815111610b09576040517f08c379a0000000000000000000000000000000000000000000000000000000008152600401610b00906121fb565b60405180910390fd5b6000610b13610827565b9050600073ffffffffffffffffffffffffffffffffffffffff168373ffffffffffffffffffffffffffffffffffffffff1603610b84576040517f08c379a0000000000000000000000000000000000000000000000000000000008152600401610b7b9061228d565b60405180910390fd5b60008160010160008573ffffffffffffffffffffffffffffffffffffffff1673ffffffffffffffffffffffffffffffffffffffff1681526020019081526020016000206000018054905090506000816bffffffffffffffffffffffff1603610bf157610bf08285610fe7565b5b60005b8351811015610d39576000848281518110610c1257610c11611cee565b5b602002602001015190506000846000016000837bffffffffffffffffffffffffffffffffffffffffffffffffffffffff19167bffffffffffffffffffffffffffffffffffffffffffffffffffffffff1916815260200190815260200160002060000160009054906101000a900473ffffffffffffffffffffffffffffffffffffffff1690508673ffffffffffffffffffffffffffffffffffffffff168173ffffffffffffffffffffffffffffffffffffffff1603610d05576040517f08c379a0000000000000000000000000000000000000000000000000000000008152600401610cfc9061242c565b60405180910390fd5b610d1085828461126f565b610d1c8583868a6110c2565b8380610d2790612386565b94505050508080600101915050610bf4565b5050505050565b6000815111610d84576040517f08c379a0000000000000000000000000000000000000000000000000000000008152600401610d7b906121fb565b60405180910390fd5b6000610d8e610827565b9050600073ffffffffffffffffffffffffffffffffffffffff168373ffffffffffffffffffffffffffffffffffffffff1614610dff576040517f08c379a0000000000000000000000000000000000000000000000000000000008152600401610df6906124be565b60405180910390fd5b60005b8251811015610ebf576000838281518110610e2057610e1f611cee565b5b602002602001015190506000836000016000837bffffffffffffffffffffffffffffffffffffffffffffffffffffffff19167bffffffffffffffffffffffffffffffffffffffffffffffffffffffff1916815260200190815260200160002060000160009054906101000a900473ffffffffffffffffffffffffffffffffffffffff169050610eb084828461126f565b50508080600101915050610e02565b50505050565b600073ffffffffffffffffffffffffffffffffffffffff168273ffffffffffffffffffffffffffffffffffffffff160315610fe357610f1c82604051806060016040528060288152602001612759602891396118d1565b6000808373ffffffffffffffffffffffffffffffffffffffff1683604051610f44919061251a565b600060405180830381855af49150503d8060008114610f7f576040519150601f19603f3d011682016040523d82523d6000602084013e610f84565b606091505b509150915081610fe057600081511115610fa15780518082602001fd5b83836040517f192105d7000000000000000000000000000000000000000000000000000000008152600401610fd7929190612531565b60405180910390fd5b50505b5050565b61100981604051806060016040528060248152602001612781602491396118d1565b81600201805490508260010160008373ffffffffffffffffffffffffffffffffffffffff1673ffffffffffffffffffffffffffffffffffffffff1681526020019081526020016000206001018190555081600201819080600181540180825580915050600190039060005260206000200160009091909190916101000a81548173ffffffffffffffffffffffffffffffffffffffff021916908373ffffffffffffffffffffffffffffffffffffffff1602179055505050565b81846000016000857bffffffffffffffffffffffffffffffffffffffffffffffffffffffff19167bffffffffffffffffffffffffffffffffffffffffffffffffffffffff1916815260200190815260200160002060000160146101000a8154816bffffffffffffffffffffffff02191690836bffffffffffffffffffffffff1602179055508360010160008273ffffffffffffffffffffffffffffffffffffffff1673ffffffffffffffffffffffffffffffffffffffff1681526020019081526020016000206000018390806001815401808255809150506001900390600052602060002090600891828204019190066004029091909190916101000a81548163ffffffff021916908360e01c021790555080846000016000857bffffffffffffffffffffffffffffffffffffffffffffffffffffffff19167bffffffffffffffffffffffffffffffffffffffffffffffffffffffff1916815260200190815260200160002060000160006101000a81548173ffffffffffffffffffffffffffffffffffffffff021916908373ffffffffffffffffffffffffffffffffffffffff16021790555050505050565b600073ffffffffffffffffffffffffffffffffffffffff168273ffffffffffffffffffffffffffffffffffffffff16036112de576040517f08c379a00000000000000000000000000000000000000000000000000000000081526004016112d5906125d3565b60405180910390fd5b3073ffffffffffffffffffffffffffffffffffffffff168273ffffffffffffffffffffffffffffffffffffffff160361134c576040517f08c379a000000000000000000000000000000000000000000000000000000000815260040161134390612665565b60405180910390fd5b6000836000016000837bffffffffffffffffffffffffffffffffffffffffffffffffffffffff19167bffffffffffffffffffffffffffffffffffffffffffffffffffffffff1916815260200190815260200160002060000160149054906101000a90046bffffffffffffffffffffffff166bffffffffffffffffffffffff169050600060018560010160008673ffffffffffffffffffffffffffffffffffffffff1673ffffffffffffffffffffffffffffffffffffffff16815260200190815260200160002060000180549050611423919061268f565b90508082146115b75760008560010160008673ffffffffffffffffffffffffffffffffffffffff1673ffffffffffffffffffffffffffffffffffffffff168152602001908152602001600020600001828154811061148457611483611cee565b5b90600052602060002090600891828204019190066004029054906101000a900460e01b9050808660010160008773ffffffffffffffffffffffffffffffffffffffff1673ffffffffffffffffffffffffffffffffffffffff1681526020019081526020016000206000018481548110611500576114ff611cee565b5b90600052602060002090600891828204019190066004026101000a81548163ffffffff021916908360e01c021790555082866000016000837bffffffffffffffffffffffffffffffffffffffffffffffffffffffff19167bffffffffffffffffffffffffffffffffffffffffffffffffffffffff1916815260200190815260200160002060000160146101000a8154816bffffffffffffffffffffffff02191690836bffffffffffffffffffffffff160217905550505b8460010160008573ffffffffffffffffffffffffffffffffffffffff1673ffffffffffffffffffffffffffffffffffffffff16815260200190815260200160002060000180548061160b5761160a6126c3565b5b60019003818190600052602060002090600891828204019190066004026101000a81549063ffffffff02191690559055846000016000847bffffffffffffffffffffffffffffffffffffffffffffffffffffffff19167bffffffffffffffffffffffffffffffffffffffffffffffffffffffff19168152602001908152602001600020600080820160006101000a81549073ffffffffffffffffffffffffffffffffffffffff02191690556000820160146101000a8154906bffffffffffffffffffffffff02191690555050600081036118ca576000600186600201805490506116f5919061268f565b905060008660010160008773ffffffffffffffffffffffffffffffffffffffff1673ffffffffffffffffffffffffffffffffffffffff16815260200190815260200160002060010154905081811461183657600087600201838154811061175f5761175e611cee565b5b9060005260206000200160009054906101000a900473ffffffffffffffffffffffffffffffffffffffff169050808860020183815481106117a3576117a2611cee565b5b9060005260206000200160006101000a81548173ffffffffffffffffffffffffffffffffffffffff021916908373ffffffffffffffffffffffffffffffffffffffff160217905550818860010160008373ffffffffffffffffffffffffffffffffffffffff1673ffffffffffffffffffffffffffffffffffffffff16815260200190815260200160002060010181905550505b8660020180548061184a576118496126c3565b5b6001900381819060005260206000200160006101000a81549073ffffffffffffffffffffffffffffffffffffffff021916905590558660010160008773ffffffffffffffffffffffffffffffffffffffff1673ffffffffffffffffffffffffffffffffffffffff1681526020019081526020016000206001016000905550505b5050505050565b6000823b905060008111829061191d576040517f08c379a00000000000000000000000000000000000000000000000000000000081526004016119149190612736565b60405180910390fd5b50505050565b6040518060600160405280600073ffffffffffffffffffffffffffffffffffffffff1681526020016000600281111561195f5761195e611cbf565b5b8152602001606081525090565b82805482825590600052602060002090600701600890048101928215611a085791602002820160005b838211156119d657835183826101000a81548163ffffffff021916908360e01c02179055509260200192600401602081600301049283019260010302611995565b8015611a065782816101000a81549063ffffffff02191690556004016020816003010492830192600103026119d6565b505b509050611a159190611a19565b5090565b5b80821115611a32576000816000905550600101611a1a565b5090565b600080fd5b600080fd5b6000819050919050565b611a5381611a40565b8114611a5e57600080fd5b50565b600081359050611a7081611a4a565b92915050565b60008115159050919050565b611a8b81611a76565b8114611a9657600080fd5b50565b600081359050611aa881611a82565b92915050565b60008060408385031215611ac557611ac4611a36565b5b6000611ad385828601611a61565b9250506020611ae485828601611a99565b9150509250929050565b600060208284031215611b0457611b03611a36565b5b6000611b1284828501611a61565b91505092915050565b611b2481611a76565b82525050565b6000602082019050611b3f6000830184611b1b565b92915050565b600073ffffffffffffffffffffffffffffffffffffffff82169050919050565b6000611b7082611b45565b9050919050565b611b8081611b65565b8114611b8b57600080fd5b50565b600081359050611b9d81611b77565b92915050565b600080fd5b600080fd5b600080fd5b60008083601f840112611bc857611bc7611ba3565b5b8235905067ffffffffffffffff811115611be557611be4611ba8565b5b602083019150836020820283011115611c0157611c00611bad565b5b9250929050565b600080600080600060808688031215611c2457611c23611a36565b5b6000611c3288828901611a61565b9550506020611c4388828901611b8e565b9450506040611c5488828901611b8e565b935050606086013567ffffffffffffffff811115611c7557611c74611a3b565b5b611c8188828901611bb2565b92509250509295509295909350565b7f4e487b7100000000000000000000000000000000000000000000000000000000600052604160045260246000fd5b7f4e487b7100000000000000000000000000000000000000000000000000000000600052602160045260246000fd5b7f4e487b7100000000000000000000000000000000000000000000000000000000600052603260045260246000fd5b600082825260208201905092915050565b7f4c69624469616d6f6e643a204d75737420626520636f6e7472616374206f776e60008201527f6572000000000000000000000000000000000000000000000000000000000000602082015250565b6000611d8a602283611d1d565b9150611d9582611d2e565b604082019050919050565b60006020820190508181036000830152611db981611d7d565b9050919050565b7f4c69624469616d6f6e644375743a20496e636f7272656374204661636574437560008201527f74416374696f6e00000000000000000000000000000000000000000000000000602082015250565b6000611e1c602783611d1d565b9150611e2782611dc0565b604082019050919050565b60006020820190508181036000830152611e4b81611e0f565b9050919050565b600081519050919050565b600082825260208201905092915050565b6000819050602082019050919050565b611e8781611b65565b82525050565b60038110611e9e57611e9d611cbf565b5b50565b6000819050611eaf82611e8d565b919050565b6000611ebf82611ea1565b9050919050565b611ecf81611eb4565b82525050565b600081519050919050565b600082825260208201905092915050565b6000819050602082019050919050565b60007fffffffff0000000000000000000000000000000000000000000000000000000082169050919050565b611f3681611f01565b82525050565b6000611f488383611f2d565b60208301905092915050565b6000602082019050919050565b6000611f6c82611ed5565b611f768185611ee0565b9350611f8183611ef1565b8060005b83811015611fb2578151611f998882611f3c565b9750611fa483611f54565b925050600181019050611f85565b5085935050505092915050565b6000606083016000830151611fd76000860182611e7e565b506020830151611fea6020860182611ec6565b50604083015184820360408601526120028282611f61565b9150508091505092915050565b600061201b8383611fbf565b905092915050565b6000602082019050919050565b600061203b82611e52565b6120458185611e5d565b93508360208202850161205785611e6e565b8060005b858110156120935784840389528151612074858261200f565b945061207f83612023565b925060208a0199505060018101905061205b565b50829750879550505050505092915050565b6120ae81611b65565b82525050565b600081519050919050565b600082825260208201905092915050565b60005b838110156120ee5780820151818401526020810190506120d3565b60008484015250505050565b6000601f19601f8301169050919050565b6000612116826120b4565b61212081856120bf565b93506121308185602086016120d0565b612139816120fa565b840191505092915050565b6000606082019050818103600083015261215e8186612030565b905061216d60208301856120a5565b818103604083015261217f818461210b565b9050949350505050565b7f4c69624469616d6f6e644375743a204e6f2073656c6563746f727320696e206660008201527f6163657420746f20637574000000000000000000000000000000000000000000602082015250565b60006121e5602b83611d1d565b91506121f082612189565b604082019050919050565b60006020820190508181036000830152612214816121d8565b9050919050565b7f4c69624469616d6f6e644375743a204164642066616365742063616e2774206260008201527f6520616464726573732830290000000000000000000000000000000000000000602082015250565b6000612277602c83611d1d565b91506122828261221b565b604082019050919050565b600060208201905081810360008301526122a68161226a565b9050919050565b7f4c69624469616d6f6e644375743a2043616e2774206164642066756e6374696f60008201527f6e207468617420616c7265616479206578697374730000000000000000000000602082015250565b6000612309603583611d1d565b9150612314826122ad565b604082019050919050565b60006020820190508181036000830152612338816122fc565b9050919050565b7f4e487b7100000000000000000000000000000000000000000000000000000000600052601160045260246000fd5b60006bffffffffffffffffffffffff82169050919050565b60006123918261236e565b91506bffffffffffffffffffffffff82036123af576123ae61233f565b5b600182019050919050565b7f4c69624469616d6f6e644375743a2043616e2774207265706c6163652066756e60008201527f6374696f6e20776974682073616d652066756e6374696f6e0000000000000000602082015250565b6000612416603883611d1d565b9150612421826123ba565b604082019050919050565b6000602082019050818103600083015261244581612409565b9050919050565b7f4c69624469616d6f6e644375743a2052656d6f7665206661636574206164647260008201527f657373206d757374206265206164647265737328302900000000000000000000602082015250565b60006124a8603683611d1d565b91506124b38261244c565b604082019050919050565b600060208201905081810360008301526124d78161249b565b9050919050565b600081905092915050565b60006124f4826120b4565b6124fe81856124de565b935061250e8185602086016120d0565b80840191505092915050565b600061252682846124e9565b915081905092915050565b600060408201905061254660008301856120a5565b8181036020830152612558818461210b565b90509392505050565b7f4c69624469616d6f6e644375743a2043616e27742072656d6f76652066756e6360008201527f74696f6e207468617420646f65736e2774206578697374000000000000000000602082015250565b60006125bd603783611d1d565b91506125c882612561565b604082019050919050565b600060208201905081810360008301526125ec816125b0565b9050919050565b7f4c69624469616d6f6e644375743a2043616e27742072656d6f766520696d6d7560008201527f7461626c652066756e6374696f6e000000000000000000000000000000000000602082015250565b600061264f602e83611d1d565b915061265a826125f3565b604082019050919050565b6000602082019050818103600083015261267e81612642565b9050919050565b6000819050919050565b600061269a82612685565b91506126a583612685565b92508282039050818111156126bd576126bc61233f565b5b92915050565b7f4e487b7100000000000000000000000000000000000000000000000000000000600052603160045260246000fd5b600081519050919050565b6000612708826126f2565b6127128185611d1d565b93506127228185602086016120d0565b61272b816120fa565b840191505092915050565b6000602082019050818103600083015261275081846126fd565b90509291505056fe4c69624469616d6f6e644375743a205f696e6974206164647265737320686173206e6f20636f64654c69624469616d6f6e644375743a204e657720666163657420686173206e6f20636f6465a26469706673582212205b8359fb848a2756e7e7652091822148dace4d43a5014db4b592d1b277e0071a64736f6c634300081c0033",
  "linkReferences": {},
  "deployedLinkReferences": {}
}