{
  "_format": "hh-sol-artifact-1",
  "contractName": "ERC20Facet",
  "sourceName": "contracts/facets/ERC20Facet.sol",
  "abi": [
    {
      "inputs": [],
      "stateMutability": "nonpayable",
      "type": "constructor"
    },
    {
      "inputs": [
        {
          "internalType": "address",
          "name": "spender",
          "type": "address"
        },
        {
          "internalType": "uint256",
          "name": "allowance",
          "type": "uint256"
        },
        {
          "internalType": "uint256",
          "name": "needed",
          "type": "uint256"
        }
      ],
      "name": "ERC20InsufficientAllowance",
      "type": "error"
    },
    {
      "inputs": [
        {
          "internalType": "address",
          "name": "sender",
          "type": "address"
        },
        {
          "internalType": "uint256",
          "name": "balance",
          "type": "uint256"
        },
        {
          "internalType": "uint256",
          "name": "needed",
          "type": "uint256"
        }
      ],
      "name": "ERC20InsufficientBalance",
      "type": "error"
    },
    {
      "inputs": [
        {
          "internalType": "address",
          "name": "approver",
          "type": "address"
        }
      ],
      "name": "ERC20InvalidApprover",
      "type": "error"
    },
    {
      "inputs": [
        {
          "internalType": "address",
          "name": "receiver",
          "type": "address"
        }
      ],
      "name": "ERC20InvalidReceiver",
      "type": "error"
    },
    {
      "inputs": [
        {
          "internalType": "address",
          "name": "sender",
          "type": "address"
        }
      ],
      "name": "ERC20InvalidSender",
      "type": "error"
    },
    {
      "inputs": [
        {
          "internalType": "address",
          "name": "spender",
          "type": "address"
        }
      ],
      "name": "ERC20InvalidSpender",
      "type": "error"
    },
    {
      "anonymous": false,
      "inputs": [
        {
          "indexed": true,
          "internalType": "address",
          "name": "owner",
          "type": "address"
        },
        {
          "indexed": true,
          "internalType": "address",
          "name": "spender",
          "type": "address"
        },
        {
          "indexed": false,
          "internalType": "uint256",
          "name": "value",
          "type": "uint256"
        }
      ],
      "name": "Approval",
      "type": "event"
    },
    {
      "anonymous": false,
      "inputs": [
        {
          "indexed": true,
          "internalType": "address",
          "name": "from",
          "type": "address"
        },
        {
          "indexed": true,
          "internalType": "address",
          "name": "to",
          "type": "address"
        },
        {
          "indexed": false,
          "internalType": "uint256",
          "name": "value",
          "type": "uint256"
        }
      ],
      "name": "Transfer",
      "type": "event"
    },
    {
      "inputs": [
        {
          "internalType": "address",
          "name": "owner",
          "type": "address"
        },
        {
          "internalType": "address",
          "name": "spender",
          "type": "address"
        }
      ],
      "name": "allowance",
      "outputs": [
        {
          "internalType": "uint256",
          "name": "",
          "type": "uint256"
        }
      ],
      "stateMutability": "view",
      "type": "function"
    },
    {
      "inputs": [
        {
          "internalType": "address",
          "name": "spender",
          "type": "address"
        },
        {
          "internalType": "uint256",
          "name": "value",
          "type": "uint256"
        }
      ],
      "name": "approve",
      "outputs": [
        {
          "internalType": "bool",
          "name": "",
          "type": "bool"
        }
      ],
      "stateMutability": "nonpayable",
      "type": "function"
    },
    {
      "inputs": [
        {
          "internalType": "address",
          "name": "account",
          "type": "address"
        }
      ],
      "name": "balanceOf",
      "outputs": [
        {
          "internalType": "uint256",
          "name": "",
          "type": "uint256"
        }
      ],
      "stateMutability": "view",
      "type": "function"
    },
    {
      "inputs": [
        {
          "internalType": "address",
          "name": "from",
          "type": "address"
        },
        {
          "internalType": "uint256",
          "name": "amount",
          "type": "uint256"
        }
      ],
      "name": "burn",
      "outputs": [],
      "stateMutability": "nonpayable",
      "type": "function"
    },
    {
      "inputs": [],
      "name": "decimals",
      "outputs": [
        {
          "internalType": "uint8",
          "name": "",
          "type": "uint8"
        }
      ],
      "stateMutability": "view",
      "type": "function"
    },
    {
      "inputs": [
        {
          "internalType": "string",
          "name": "_name",
          "type": "string"
        },
        {
          "internalType": "string",
          "name": "_symbol",
          "type": "string"
        },
        {
          "internalType": "uint256",
          "name": "_initialSupply",
          "type": "uint256"
        },
        {
          "internalType": "address",
          "name": "owner",
          "type": "address"
        }
      ],
      "name": "initializeERC20",
      "outputs": [],
      "stateMutability": "nonpayable",
      "type": "function"
    },
    {
      "inputs": [],
      "name": "name",
      "outputs": [
        {
          "internalType": "string",
          "name": "",
          "type": "string"
        }
      ],
      "stateMutability": "view",
      "type": "function"
    },
    {
      "inputs": [],
      "name": "symbol",
      "outputs": [
        {
          "internalType": "string",
          "name": "",
          "type": "string"
        }
      ],
      "stateMutability": "view",
      "type": "function"
    },
    {
      "inputs": [],
      "name": "totalSupply",
      "outputs": [
        {
          "internalType": "uint256",
          "name": "",
          "type": "uint256"
        }
      ],
      "stateMutability": "view",
      "type": "function"
    },
    {
      "inputs": [
        {
          "internalType": "address",
          "name": "recipient",
          "type": "address"
        },
        {
          "internalType": "uint256",
          "name": "amount",
          "type": "uint256"
        }
      ],
      "name": "transfer",
      "outputs": [
        {
          "internalType": "bool",
          "name": "",
          "type": "bool"
        }
      ],
      "stateMutability": "nonpayable",
      "type": "function"
    },
    {
      "inputs": [
        {
          "internalType": "address",
          "name": "from",
          "type": "address"
        },
        {
          "internalType": "address",
          "name": "to",
          "type": "address"
        },
        {
          "internalType": "uint256",
          "name": "value",
          "type": "uint256"
        }
      ],
      "name": "transferFrom",
      "outputs": [
        {
          "internalType": "bool",
          "name": "",
          "type": "bool"
        }
      ],
      "stateMutability": "nonpayable",
      "type": "function"
    }
  ],
  "bytecode": "0x608060405234801561001057600080fd5b506040518060400160405280601181526020017f4d616e616765642044656d6f63726163790000000000000000000000000000008152506040518060400160405280600481526020017f4d44454d00000000000000000000000000000000000000000000000000000000815250816003908161008c919061030f565b50806004908161009c919061030f565b5050506001600560006101000a81548160ff0219169083151502179055506103e1565b600081519050919050565b7f4e487b7100000000000000000000000000000000000000000000000000000000600052604160045260246000fd5b7f4e487b7100000000000000000000000000000000000000000000000000000000600052602260045260246000fd5b6000600282049050600182168061014057607f821691505b602082108103610153576101526100f9565b5b50919050565b60008190508160005260206000209050919050565b60006020601f8301049050919050565b600082821b905092915050565b6000600883026101bb7fffffffffffffffffffffffffffffffffffffffffffffffffffffffffffffffff8261017e565b6101c5868361017e565b95508019841693508086168417925050509392505050565b6000819050919050565b6000819050919050565b600061020c610207610202846101dd565b6101e7565b6101dd565b9050919050565b6000819050919050565b610226836101f1565b61023a61023282610213565b84845461018b565b825550505050565b600090565b61024f610242565b61025a81848461021d565b505050565b5b8181101561027e57610273600082610247565b600181019050610260565b5050565b601f8211156102c35761029481610159565b61029d8461016e565b810160208510156102ac578190505b6102c06102b88561016e565b83018261025f565b50505b505050565b600082821c905092915050565b60006102e6600019846008026102c8565b1980831691505092915050565b60006102ff83836102d5565b9150826002028217905092915050565b610318826100bf565b67ffffffffffffffff811115610331576103306100ca565b5b61033b8254610128565b610346828285610282565b600060209050601f8311600181146103795760008415610367578287015190505b61037185826102f3565b8655506103d9565b601f19841661038786610159565b60005b828110156103af5784890151825560018201915060208501945060208101905061038a565b868310156103cc57848901516103c8601f8916826102d5565b8355505b6001600288020188555050505b505050505050565b611694806103f06000396000f3fe608060405234801561001057600080fd5b50600436106100a95760003560e01c806370a082311161007157806370a082311461016857806395d89b41146101985780639dc29fac146101b6578063a9059cbb146101d2578063dd62ed3e14610202578063f3a7b82f14610232576100a9565b806306fdde03146100ae578063095ea7b3146100cc57806318160ddd146100fc57806323b872dd1461011a578063313ce5671461014a575b600080fd5b6100b661024e565b6040516100c39190610d89565b60405180910390f35b6100e660048036038101906100e19190610e53565b6102e0565b6040516100f39190610eae565b60405180910390f35b610104610303565b6040516101119190610ed8565b60405180910390f35b610134600480360381019061012f9190610ef3565b61030d565b6040516101419190610eae565b60405180910390f35b61015261033c565b60405161015f9190610f62565b60405180910390f35b610182600480360381019061017d9190610f7d565b610345565b60405161018f9190610ed8565b60405180910390f35b6101a061038d565b6040516101ad9190610d89565b60405180910390f35b6101d060048036038101906101cb9190610e53565b61041f565b005b6101ec60048036038101906101e79190610e53565b610435565b6040516101f99190610eae565b60405180910390f35b61021c60048036038101906102179190610faa565b610449565b6040516102299190610ed8565b60405180910390f35b61024c6004803603810190610247919061111f565b6104d0565b005b60606006805461025d906111ed565b80601f0160208091040260200160405190810160405280929190818152602001828054610289906111ed565b80156102d65780601f106102ab576101008083540402835291602001916102d6565b820191906000526020600020905b8154815290600101906020018083116102b957829003601f168201915b5050505050905090565b6000806102eb61056b565b90506102f8818585610573565b600191505092915050565b6000600254905090565b60008061031861056b565b9050610325858285610585565b61033085858561061a565b60019150509392505050565b60006012905090565b60008060008373ffffffffffffffffffffffffffffffffffffffff1673ffffffffffffffffffffffffffffffffffffffff168152602001908152602001600020549050919050565b60606007805461039c906111ed565b80601f01602080910402602001604051908101604052809291908181526020018280546103c8906111ed565b80156104155780601f106103ea57610100808354040283529160200191610415565b820191906000526020600020905b8154815290600101906020018083116103f857829003601f168201915b5050505050905090565b61042761070e565b61043182826107a9565b5050565b6000610441838361082b565b905092915050565b6000600160008473ffffffffffffffffffffffffffffffffffffffff1673ffffffffffffffffffffffffffffffffffffffff16815260200190815260200160002060008373ffffffffffffffffffffffffffffffffffffffff1673ffffffffffffffffffffffffffffffffffffffff16815260200190815260200160002054905092915050565b600560009054906101000a900460ff1615610520576040517f08c379a00000000000000000000000000000000000000000000000000000000081526004016105179061126a565b60405180910390fd5b6001600560006101000a81548160ff021916908315150217905550836006908161054a9190611436565b50826007908161055a9190611436565b50610565818361084e565b50505050565b600033905090565b61058083838360016108d0565b505050565b60006105918484610449565b90507fffffffffffffffffffffffffffffffffffffffffffffffffffffffffffffffff8110156106145781811015610604578281836040517ffb8f41b20000000000000000000000000000000000000000000000000000000081526004016105fb93929190611517565b60405180910390fd5b610613848484840360006108d0565b5b50505050565b600073ffffffffffffffffffffffffffffffffffffffff168373ffffffffffffffffffffffffffffffffffffffff160361068c5760006040517f96c6fd1e000000000000000000000000000000000000000000000000000000008152600401610683919061154e565b60405180910390fd5b600073ffffffffffffffffffffffffffffffffffffffff168273ffffffffffffffffffffffffffffffffffffffff16036106fe5760006040517fec442f050000000000000000000000000000000000000000000000000000000081526004016106f5919061154e565b60405180910390fd5b610709838383610aa7565b505050565b610716610ccc565b60040160009054906101000a900473ffffffffffffffffffffffffffffffffffffffff1673ffffffffffffffffffffffffffffffffffffffff163373ffffffffffffffffffffffffffffffffffffffff16146107a7576040517f08c379a000000000000000000000000000000000000000000000000000000000815260040161079e906115db565b60405180910390fd5b565b600073ffffffffffffffffffffffffffffffffffffffff168273ffffffffffffffffffffffffffffffffffffffff160361081b5760006040517f96c6fd1e000000000000000000000000000000000000000000000000000000008152600401610812919061154e565b60405180910390fd5b61082782600083610aa7565b5050565b60008061083661056b565b905061084381858561061a565b600191505092915050565b600073ffffffffffffffffffffffffffffffffffffffff168273ffffffffffffffffffffffffffffffffffffffff16036108c05760006040517fec442f050000000000000000000000000000000000000000000000000000000081526004016108b7919061154e565b60405180910390fd5b6108cc60008383610aa7565b5050565b600073ffffffffffffffffffffffffffffffffffffffff168473ffffffffffffffffffffffffffffffffffffffff16036109425760006040517fe602df05000000000000000000000000000000000000000000000000000000008152600401610939919061154e565b60405180910390fd5b600073ffffffffffffffffffffffffffffffffffffffff168373ffffffffffffffffffffffffffffffffffffffff16036109b45760006040517f94280d620000000000000000000000000000000000000000000000000000000081526004016109ab919061154e565b60405180910390fd5b81600160008673ffffffffffffffffffffffffffffffffffffffff1673ffffffffffffffffffffffffffffffffffffffff16815260200190815260200160002060008573ffffffffffffffffffffffffffffffffffffffff1673ffffffffffffffffffffffffffffffffffffffff168152602001908152602001600020819055508015610aa1578273ffffffffffffffffffffffffffffffffffffffff168473ffffffffffffffffffffffffffffffffffffffff167f8c5be1e5ebec7d5bd14f71427d1e84f3dd0314c0f7b2291e5b200ac8c7c3b92584604051610a989190610ed8565b60405180910390a35b50505050565b600073ffffffffffffffffffffffffffffffffffffffff168373ffffffffffffffffffffffffffffffffffffffff1603610af9578060026000828254610aed919061162a565b92505081905550610bcc565b60008060008573ffffffffffffffffffffffffffffffffffffffff1673ffffffffffffffffffffffffffffffffffffffff16815260200190815260200160002054905081811015610b85578381836040517fe450d38c000000000000000000000000000000000000000000000000000000008152600401610b7c93929190611517565b60405180910390fd5b8181036000808673ffffffffffffffffffffffffffffffffffffffff1673ffffffffffffffffffffffffffffffffffffffff16815260200190815260200160002081905550505b600073ffffffffffffffffffffffffffffffffffffffff168273ffffffffffffffffffffffffffffffffffffffff1603610c155780600260008282540392505081905550610c62565b806000808473ffffffffffffffffffffffffffffffffffffffff1673ffffffffffffffffffffffffffffffffffffffff168152602001908152602001600020600082825401925050819055505b8173ffffffffffffffffffffffffffffffffffffffff168373ffffffffffffffffffffffffffffffffffffffff167fddf252ad1be2c89b69c2b068fc378daa952ba7f163c4a11628f55a4df523b3ef83604051610cbf9190610ed8565b60405180910390a3505050565b6000807fc8fcad8db84d3cc18b4c41d551ea0ee66dd599cde068d998e57d5e09332c131c90508091505090565b600081519050919050565b600082825260208201905092915050565b60005b83811015610d33578082015181840152602081019050610d18565b60008484015250505050565b6000601f19601f8301169050919050565b6000610d5b82610cf9565b610d658185610d04565b9350610d75818560208601610d15565b610d7e81610d3f565b840191505092915050565b60006020820190508181036000830152610da38184610d50565b905092915050565b6000604051905090565b600080fd5b600080fd5b600073ffffffffffffffffffffffffffffffffffffffff82169050919050565b6000610dea82610dbf565b9050919050565b610dfa81610ddf565b8114610e0557600080fd5b50565b600081359050610e1781610df1565b92915050565b6000819050919050565b610e3081610e1d565b8114610e3b57600080fd5b50565b600081359050610e4d81610e27565b92915050565b60008060408385031215610e6a57610e69610db5565b5b6000610e7885828601610e08565b9250506020610e8985828601610e3e565b9150509250929050565b60008115159050919050565b610ea881610e93565b82525050565b6000602082019050610ec36000830184610e9f565b92915050565b610ed281610e1d565b82525050565b6000602082019050610eed6000830184610ec9565b92915050565b600080600060608486031215610f0c57610f0b610db5565b5b6000610f1a86828701610e08565b9350506020610f2b86828701610e08565b9250506040610f3c86828701610e3e565b9150509250925092565b600060ff82169050919050565b610f5c81610f46565b82525050565b6000602082019050610f776000830184610f53565b92915050565b600060208284031215610f9357610f92610db5565b5b6000610fa184828501610e08565b91505092915050565b60008060408385031215610fc157610fc0610db5565b5b6000610fcf85828601610e08565b9250506020610fe085828601610e08565b9150509250929050565b600080fd5b600080fd5b7f4e487b7100000000000000000000000000000000000000000000000000000000600052604160045260246000fd5b61102c82610d3f565b810181811067ffffffffffffffff8211171561104b5761104a610ff4565b5b80604052505050565b600061105e610dab565b905061106a8282611023565b919050565b600067ffffffffffffffff82111561108a57611089610ff4565b5b61109382610d3f565b9050602081019050919050565b82818337600083830152505050565b60006110c26110bd8461106f565b611054565b9050828152602081018484840111156110de576110dd610fef565b5b6110e98482856110a0565b509392505050565b600082601f83011261110657611105610fea565b5b81356111168482602086016110af565b91505092915050565b6000806000806080858703121561113957611138610db5565b5b600085013567ffffffffffffffff81111561115757611156610dba565b5b611163878288016110f1565b945050602085013567ffffffffffffffff81111561118457611183610dba565b5b611190878288016110f1565b93505060406111a187828801610e3e565b92505060606111b287828801610e08565b91505092959194509250565b7f4e487b7100000000000000000000000000000000000000000000000000000000600052602260045260246000fd5b6000600282049050600182168061120557607f821691505b602082108103611218576112176111be565b5b50919050565b7f416c726561647920696e697469616c697a656400000000000000000000000000600082015250565b6000611254601383610d04565b915061125f8261121e565b602082019050919050565b6000602082019050818103600083015261128381611247565b9050919050565b60008190508160005260206000209050919050565b60006020601f8301049050919050565b600082821b905092915050565b6000600883026112ec7fffffffffffffffffffffffffffffffffffffffffffffffffffffffffffffffff826112af565b6112f686836112af565b95508019841693508086168417925050509392505050565b6000819050919050565b600061133361132e61132984610e1d565b61130e565b610e1d565b9050919050565b6000819050919050565b61134d83611318565b6113616113598261133a565b8484546112bc565b825550505050565b600090565b611376611369565b611381818484611344565b505050565b5b818110156113a55761139a60008261136e565b600181019050611387565b5050565b601f8211156113ea576113bb8161128a565b6113c48461129f565b810160208510156113d3578190505b6113e76113df8561129f565b830182611386565b50505b505050565b600082821c905092915050565b600061140d600019846008026113ef565b1980831691505092915050565b600061142683836113fc565b9150826002028217905092915050565b61143f82610cf9565b67ffffffffffffffff81111561145857611457610ff4565b5b61146282546111ed565b61146d8282856113a9565b600060209050601f8311600181146114a0576000841561148e578287015190505b611498858261141a565b865550611500565b601f1984166114ae8661128a565b60005b828110156114d6578489015182556001820191506020850194506020810190506114b1565b868310156114f357848901516114ef601f8916826113fc565b8355505b6001600288020188555050505b505050505050565b61151181610ddf565b82525050565b600060608201905061152c6000830186611508565b6115396020830185610ec9565b6115466040830184610ec9565b949350505050565b60006020820190506115636000830184611508565b92915050565b7f4c69624469616d6f6e643a204d75737420626520636f6e7472616374206f776e60008201527f6572000000000000000000000000000000000000000000000000000000000000602082015250565b60006115c5602283610d04565b91506115d082611569565b604082019050919050565b600060208201905081810360008301526115f4816115b8565b9050919050565b7f4e487b7100000000000000000000000000000000000000000000000000000000600052601160045260246000fd5b600061163582610e1d565b915061164083610e1d565b9250828201905080821115611658576116576115fb565b5b9291505056fea2646970667358221220fa02ea76ab594334de731a542d93d1be4dc61a4fb37c1210dd3580cfc69a29af64736f6c634300081c0033",
  "linkReferences": {},
  "deployedLinkReferences": {}
}