{
  "_format": "hh-sol-artifact-1",
  "contractName": "ERC20Facet",
  "sourceName": "contracts/facets/ERC20Facet.sol",
  "abi": [
    {
      "inputs": [],
      "stateMutability": "nonpayable",
      "type": "constructor"
    },
    {
      "inputs": [
        {
          "internalType": "address",
          "name": "spender",
          "type": "address"
        },
        {
          "internalType": "uint256",
          "name": "allowance",
          "type": "uint256"
        },
        {
          "internalType": "uint256",
          "name": "needed",
          "type": "uint256"
        }
      ],
      "name": "ERC20InsufficientAllowance",
      "type": "error"
    },
    {
      "inputs": [
        {
          "internalType": "address",
          "name": "sender",
          "type": "address"
        },
        {
          "internalType": "uint256",
          "name": "balance",
          "type": "uint256"
        },
        {
          "internalType": "uint256",
          "name": "needed",
          "type": "uint256"
        }
      ],
      "name": "ERC20InsufficientBalance",
      "type": "error"
    },
    {
      "inputs": [
        {
          "internalType": "address",
          "name": "approver",
          "type": "address"
        }
      ],
      "name": "ERC20InvalidApprover",
      "type": "error"
    },
    {
      "inputs": [
        {
          "internalType": "address",
          "name": "receiver",
          "type": "address"
        }
      ],
      "name": "ERC20InvalidReceiver",
      "type": "error"
    },
    {
      "inputs": [
        {
          "internalType": "address",
          "name": "sender",
          "type": "address"
        }
      ],
      "name": "ERC20InvalidSender",
      "type": "error"
    },
    {
      "inputs": [
        {
          "internalType": "address",
          "name": "spender",
          "type": "address"
        }
      ],
      "name": "ERC20InvalidSpender",
      "type": "error"
    },
    {
      "anonymous": false,
      "inputs": [
        {
          "indexed": true,
          "internalType": "address",
          "name": "owner",
          "type": "address"
        },
        {
          "indexed": true,
          "internalType": "address",
          "name": "spender",
          "type": "address"
        },
        {
          "indexed": false,
          "internalType": "uint256",
          "name": "value",
          "type": "uint256"
        }
      ],
      "name": "Approval",
      "type": "event"
    },
    {
      "anonymous": false,
      "inputs": [
        {
          "indexed": true,
          "internalType": "address",
          "name": "from",
          "type": "address"
        },
        {
          "indexed": true,
          "internalType": "address",
          "name": "to",
          "type": "address"
        },
        {
          "indexed": false,
          "internalType": "uint256",
          "name": "value",
          "type": "uint256"
        }
      ],
      "name": "Transfer",
      "type": "event"
    },
    {
      "inputs": [
        {
          "internalType": "address",
          "name": "owner",
          "type": "address"
        },
        {
          "internalType": "address",
          "name": "spender",
          "type": "address"
        }
      ],
      "name": "allowance",
      "outputs": [
        {
          "internalType": "uint256",
          "name": "",
          "type": "uint256"
        }
      ],
      "stateMutability": "view",
      "type": "function"
    },
    {
      "inputs": [
        {
          "internalType": "address",
          "name": "spender",
          "type": "address"
        },
        {
          "internalType": "uint256",
          "name": "value",
          "type": "uint256"
        }
      ],
      "name": "approve",
      "outputs": [
        {
          "internalType": "bool",
          "name": "",
          "type": "bool"
        }
      ],
      "stateMutability": "nonpayable",
      "type": "function"
    },
    {
      "inputs": [
        {
          "internalType": "address",
          "name": "account",
          "type": "address"
        }
      ],
      "name": "balanceOf",
      "outputs": [
        {
          "internalType": "uint256",
          "name": "",
          "type": "uint256"
        }
      ],
      "stateMutability": "view",
      "type": "function"
    },
    {
      "inputs": [
        {
          "internalType": "address",
          "name": "from",
          "type": "address"
        },
        {
          "internalType": "uint256",
          "name": "amount",
          "type": "uint256"
        }
      ],
      "name": "burn",
      "outputs": [],
      "stateMutability": "nonpayable",
      "type": "function"
    },
    {
      "inputs": [],
      "name": "decimals",
      "outputs": [
        {
          "internalType": "uint8",
          "name": "",
          "type": "uint8"
        }
      ],
      "stateMutability": "view",
      "type": "function"
    },
    {
      "inputs": [
        {
          "internalType": "string",
          "name": "_name",
          "type": "string"
        },
        {
          "internalType": "string",
          "name": "_symbol",
          "type": "string"
        },
        {
          "internalType": "uint256",
          "name": "_initialSupply",
          "type": "uint256"
        },
        {
          "internalType": "address",
          "name": "owner",
          "type": "address"
        }
      ],
      "name": "initializeERC20",
      "outputs": [],
      "stateMutability": "nonpayable",
      "type": "function"
    },
    {
      "inputs": [],
      "name": "name",
      "outputs": [
        {
          "internalType": "string",
          "name": "",
          "type": "string"
        }
      ],
      "stateMutability": "view",
      "type": "function"
    },
    {
      "inputs": [],
      "name": "symbol",
      "outputs": [
        {
          "internalType": "string",
          "name": "",
          "type": "string"
        }
      ],
      "stateMutability": "view",
      "type": "function"
    },
    {
      "inputs": [],
      "name": "totalSupply",
      "outputs": [
        {
          "internalType": "uint256",
          "name": "",
          "type": "uint256"
        }
      ],
      "stateMutability": "view",
      "type": "function"
    },
    {
      "inputs": [
        {
          "internalType": "address",
          "name": "recipient",
          "type": "address"
        },
        {
          "internalType": "uint256",
          "name": "amount",
          "type": "uint256"
        }
      ],
      "name": "transfer",
      "outputs": [
        {
          "internalType": "bool",
          "name": "",
          "type": "bool"
        }
      ],
      "stateMutability": "nonpayable",
      "type": "function"
    },
    {
      "inputs": [
        {
          "internalType": "address",
          "name": "from",
          "type": "address"
        },
        {
          "internalType": "address",
          "name": "to",
          "type": "address"
        },
        {
          "internalType": "uint256",
          "name": "value",
          "type": "uint256"
        }
      ],
      "name": "transferFrom",
      "outputs": [
        {
          "internalType": "bool",
          "name": "",
          "type": "bool"
        }
      ],
      "stateMutability": "nonpayable",
      "type": "function"
    }
  ],
  "bytecode": "0x608060405234801561001057600080fd5b506040518060400160405280601181526020017f4d616e616765642044656d6f63726163790000000000000000000000000000008152506040518060400160405280600481526020017f4d44454d00000000000000000000000000000000000000000000000000000000815250816003908161008c919061030f565b50806004908161009c919061030f565b5050506001600560006101000a81548160ff0219169083151502179055506103e1565b600081519050919050565b7f4e487b7100000000000000000000000000000000000000000000000000000000600052604160045260246000fd5b7f4e487b7100000000000000000000000000000000000000000000000000000000600052602260045260246000fd5b6000600282049050600182168061014057607f821691505b602082108103610153576101526100f9565b5b50919050565b60008190508160005260206000209050919050565b60006020601f8301049050919050565b600082821b905092915050565b6000600883026101bb7fffffffffffffffffffffffffffffffffffffffffffffffffffffffffffffffff8261017e565b6101c5868361017e565b95508019841693508086168417925050509392505050565b6000819050919050565b6000819050919050565b600061020c610207610202846101dd565b6101e7565b6101dd565b9050919050565b6000819050919050565b610226836101f1565b61023a61023282610213565b84845461018b565b825550505050565b600090565b61024f610242565b61025a81848461021d565b505050565b5b8181101561027e57610273600082610247565b600181019050610260565b5050565b601f8211156102c35761029481610159565b61029d8461016e565b810160208510156102ac578190505b6102c06102b88561016e565b83018261025f565b50505b505050565b600082821c905092915050565b60006102e6600019846008026102c8565b1980831691505092915050565b60006102ff83836102d5565b9150826002028217905092915050565b610318826100bf565b67ffffffffffffffff811115610331576103306100ca565b5b61033b8254610128565b610346828285610282565b600060209050601f8311600181146103795760008415610367578287015190505b61037185826102f3565b8655506103d9565b601f19841661038786610159565b60005b828110156103af5784890151825560018201915060208501945060208101905061038a565b868310156103cc57848901516103c8601f8916826102d5565b8355505b6001600288020188555050505b505050505050565b611532806103f06000396000f3fe608060405234801561001057600080fd5b50600436106100a95760003560e01c806370a082311161007157806370a082311461016857806395d89b41146101985780639dc29fac146101b6578063a9059cbb146101d2578063dd62ed3e14610202578063f3a7b82f14610232576100a9565b806306fdde03146100ae578063095ea7b3146100cc57806318160ddd146100fc57806323b872dd1461011a578063313ce5671461014a575b600080fd5b6100b661024e565b6040516100c39190610cb9565b60405180910390f35b6100e660048036038101906100e19190610d83565b6102e0565b6040516100f39190610dde565b60405180910390f35b610104610303565b6040516101119190610e08565b60405180910390f35b610134600480360381019061012f9190610e23565b61030d565b6040516101419190610dde565b60405180910390f35b61015261033c565b60405161015f9190610e92565b60405180910390f35b610182600480360381019061017d9190610ead565b610345565b60405161018f9190610e08565b60405180910390f35b6101a061038d565b6040516101ad9190610cb9565b60405180910390f35b6101d060048036038101906101cb9190610d83565b61041f565b005b6101ec60048036038101906101e79190610d83565b61042d565b6040516101f99190610dde565b60405180910390f35b61021c60048036038101906102179190610eda565b610441565b6040516102299190610e08565b60405180910390f35b61024c6004803603810190610247919061104f565b6104c8565b005b60606006805461025d9061111d565b80601f01602080910402602001604051908101604052809291908181526020018280546102899061111d565b80156102d65780601f106102ab576101008083540402835291602001916102d6565b820191906000526020600020905b8154815290600101906020018083116102b957829003601f168201915b5050505050905090565b6000806102eb610563565b90506102f881858561056b565b600191505092915050565b6000600254905090565b600080610318610563565b905061032585828561057d565b610330858585610612565b60019150509392505050565b60006012905090565b60008060008373ffffffffffffffffffffffffffffffffffffffff1673ffffffffffffffffffffffffffffffffffffffff168152602001908152602001600020549050919050565b60606007805461039c9061111d565b80601f01602080910402602001604051908101604052809291908181526020018280546103c89061111d565b80156104155780601f106103ea57610100808354040283529160200191610415565b820191906000526020600020905b8154815290600101906020018083116103f857829003601f168201915b5050505050905090565b6104298282610706565b5050565b60006104398383610788565b905092915050565b6000600160008473ffffffffffffffffffffffffffffffffffffffff1673ffffffffffffffffffffffffffffffffffffffff16815260200190815260200160002060008373ffffffffffffffffffffffffffffffffffffffff1673ffffffffffffffffffffffffffffffffffffffff16815260200190815260200160002054905092915050565b600560009054906101000a900460ff1615610518576040517f08c379a000000000000000000000000000000000000000000000000000000000815260040161050f9061119a565b60405180910390fd5b6001600560006101000a81548160ff02191690831515021790555083600690816105429190611366565b5082600790816105529190611366565b5061055d81836107ab565b50505050565b600033905090565b610578838383600161082d565b505050565b60006105898484610441565b90507fffffffffffffffffffffffffffffffffffffffffffffffffffffffffffffffff81101561060c57818110156105fc578281836040517ffb8f41b20000000000000000000000000000000000000000000000000000000081526004016105f393929190611447565b60405180910390fd5b61060b8484848403600061082d565b5b50505050565b600073ffffffffffffffffffffffffffffffffffffffff168373ffffffffffffffffffffffffffffffffffffffff16036106845760006040517f96c6fd1e00000000000000000000000000000000000000000000000000000000815260040161067b919061147e565b60405180910390fd5b600073ffffffffffffffffffffffffffffffffffffffff168273ffffffffffffffffffffffffffffffffffffffff16036106f65760006040517fec442f050000000000000000000000000000000000000000000000000000000081526004016106ed919061147e565b60405180910390fd5b610701838383610a04565b505050565b600073ffffffffffffffffffffffffffffffffffffffff168273ffffffffffffffffffffffffffffffffffffffff16036107785760006040517f96c6fd1e00000000000000000000000000000000000000000000000000000000815260040161076f919061147e565b60405180910390fd5b61078482600083610a04565b5050565b600080610793610563565b90506107a0818585610612565b600191505092915050565b600073ffffffffffffffffffffffffffffffffffffffff168273ffffffffffffffffffffffffffffffffffffffff160361081d5760006040517fec442f05000000000000000000000000000000000000000000000000000000008152600401610814919061147e565b60405180910390fd5b61082960008383610a04565b5050565b600073ffffffffffffffffffffffffffffffffffffffff168473ffffffffffffffffffffffffffffffffffffffff160361089f5760006040517fe602df05000000000000000000000000000000000000000000000000000000008152600401610896919061147e565b60405180910390fd5b600073ffffffffffffffffffffffffffffffffffffffff168373ffffffffffffffffffffffffffffffffffffffff16036109115760006040517f94280d62000000000000000000000000000000000000000000000000000000008152600401610908919061147e565b60405180910390fd5b81600160008673ffffffffffffffffffffffffffffffffffffffff1673ffffffffffffffffffffffffffffffffffffffff16815260200190815260200160002060008573ffffffffffffffffffffffffffffffffffffffff1673ffffffffffffffffffffffffffffffffffffffff1681526020019081526020016000208190555080156109fe578273ffffffffffffffffffffffffffffffffffffffff168473ffffffffffffffffffffffffffffffffffffffff167f8c5be1e5ebec7d5bd14f71427d1e84f3dd0314c0f7b2291e5b200ac8c7c3b925846040516109f59190610e08565b60405180910390a35b50505050565b600073ffffffffffffffffffffffffffffffffffffffff168373ffffffffffffffffffffffffffffffffffffffff1603610a56578060026000828254610a4a91906114c8565b92505081905550610b29565b60008060008573ffffffffffffffffffffffffffffffffffffffff1673ffffffffffffffffffffffffffffffffffffffff16815260200190815260200160002054905081811015610ae2578381836040517fe450d38c000000000000000000000000000000000000000000000000000000008152600401610ad993929190611447565b60405180910390fd5b8181036000808673ffffffffffffffffffffffffffffffffffffffff1673ffffffffffffffffffffffffffffffffffffffff16815260200190815260200160002081905550505b600073ffffffffffffffffffffffffffffffffffffffff168273ffffffffffffffffffffffffffffffffffffffff1603610b725780600260008282540392505081905550610bbf565b806000808473ffffffffffffffffffffffffffffffffffffffff1673ffffffffffffffffffffffffffffffffffffffff168152602001908152602001600020600082825401925050819055505b8173ffffffffffffffffffffffffffffffffffffffff168373ffffffffffffffffffffffffffffffffffffffff167fddf252ad1be2c89b69c2b068fc378daa952ba7f163c4a11628f55a4df523b3ef83604051610c1c9190610e08565b60405180910390a3505050565b600081519050919050565b600082825260208201905092915050565b60005b83811015610c63578082015181840152602081019050610c48565b60008484015250505050565b6000601f19601f8301169050919050565b6000610c8b82610c29565b610c958185610c34565b9350610ca5818560208601610c45565b610cae81610c6f565b840191505092915050565b60006020820190508181036000830152610cd38184610c80565b905092915050565b6000604051905090565b600080fd5b600080fd5b600073ffffffffffffffffffffffffffffffffffffffff82169050919050565b6000610d1a82610cef565b9050919050565b610d2a81610d0f565b8114610d3557600080fd5b50565b600081359050610d4781610d21565b92915050565b6000819050919050565b610d6081610d4d565b8114610d6b57600080fd5b50565b600081359050610d7d81610d57565b92915050565b60008060408385031215610d9a57610d99610ce5565b5b6000610da885828601610d38565b9250506020610db985828601610d6e565b9150509250929050565b60008115159050919050565b610dd881610dc3565b82525050565b6000602082019050610df36000830184610dcf565b92915050565b610e0281610d4d565b82525050565b6000602082019050610e1d6000830184610df9565b92915050565b600080600060608486031215610e3c57610e3b610ce5565b5b6000610e4a86828701610d38565b9350506020610e5b86828701610d38565b9250506040610e6c86828701610d6e565b9150509250925092565b600060ff82169050919050565b610e8c81610e76565b82525050565b6000602082019050610ea76000830184610e83565b92915050565b600060208284031215610ec357610ec2610ce5565b5b6000610ed184828501610d38565b91505092915050565b60008060408385031215610ef157610ef0610ce5565b5b6000610eff85828601610d38565b9250506020610f1085828601610d38565b9150509250929050565b600080fd5b600080fd5b7f4e487b7100000000000000000000000000000000000000000000000000000000600052604160045260246000fd5b610f5c82610c6f565b810181811067ffffffffffffffff82111715610f7b57610f7a610f24565b5b80604052505050565b6000610f8e610cdb565b9050610f9a8282610f53565b919050565b600067ffffffffffffffff821115610fba57610fb9610f24565b5b610fc382610c6f565b9050602081019050919050565b82818337600083830152505050565b6000610ff2610fed84610f9f565b610f84565b90508281526020810184848401111561100e5761100d610f1f565b5b611019848285610fd0565b509392505050565b600082601f83011261103657611035610f1a565b5b8135611046848260208601610fdf565b91505092915050565b6000806000806080858703121561106957611068610ce5565b5b600085013567ffffffffffffffff81111561108757611086610cea565b5b61109387828801611021565b945050602085013567ffffffffffffffff8111156110b4576110b3610cea565b5b6110c087828801611021565b93505060406110d187828801610d6e565b92505060606110e287828801610d38565b91505092959194509250565b7f4e487b7100000000000000000000000000000000000000000000000000000000600052602260045260246000fd5b6000600282049050600182168061113557607f821691505b602082108103611148576111476110ee565b5b50919050565b7f416c726561647920696e697469616c697a656400000000000000000000000000600082015250565b6000611184601383610c34565b915061118f8261114e565b602082019050919050565b600060208201905081810360008301526111b381611177565b9050919050565b60008190508160005260206000209050919050565b60006020601f8301049050919050565b600082821b905092915050565b60006008830261121c7fffffffffffffffffffffffffffffffffffffffffffffffffffffffffffffffff826111df565b61122686836111df565b95508019841693508086168417925050509392505050565b6000819050919050565b600061126361125e61125984610d4d565b61123e565b610d4d565b9050919050565b6000819050919050565b61127d83611248565b6112916112898261126a565b8484546111ec565b825550505050565b600090565b6112a6611299565b6112b1818484611274565b505050565b5b818110156112d5576112ca60008261129e565b6001810190506112b7565b5050565b601f82111561131a576112eb816111ba565b6112f4846111cf565b81016020851015611303578190505b61131761130f856111cf565b8301826112b6565b50505b505050565b600082821c905092915050565b600061133d6000198460080261131f565b1980831691505092915050565b6000611356838361132c565b9150826002028217905092915050565b61136f82610c29565b67ffffffffffffffff81111561138857611387610f24565b5b611392825461111d565b61139d8282856112d9565b600060209050601f8311600181146113d057600084156113be578287015190505b6113c8858261134a565b865550611430565b601f1984166113de866111ba565b60005b82811015611406578489015182556001820191506020850194506020810190506113e1565b86831015611423578489015161141f601f89168261132c565b8355505b6001600288020188555050505b505050505050565b61144181610d0f565b82525050565b600060608201905061145c6000830186611438565b6114696020830185610df9565b6114766040830184610df9565b949350505050565b60006020820190506114936000830184611438565b92915050565b7f4e487b7100000000000000000000000000000000000000000000000000000000600052601160045260246000fd5b60006114d382610d4d565b91506114de83610d4d565b92508282019050808211156114f6576114f5611499565b5b9291505056fea2646970667358221220c0e7a206990ab1348b4828779679fb785a7b01cb0ef7e839f52ad2e690504f4264736f6c634300081c0033",
  "linkReferences": {},
  "deployedLinkReferences": {}
}