{
  "_format": "hh-sol-artifact-1",
  "contractName": "ERC20Facet",
  "sourceName": "contracts/facets/ERC20Facet.sol",
  "abi": [
    {
      "inputs": [
        {
          "internalType": "address",
          "name": "sender",
          "type": "address"
        },
        {
          "internalType": "address",
          "name": "recipient",
          "type": "address"
        },
        {
          "internalType": "uint256",
          "name": "amount",
          "type": "uint256"
        }
      ],
      "name": "_transferTokens",
      "outputs": [],
      "stateMutability": "nonpayable",
      "type": "function"
    },
    {
      "inputs": [
        {
          "internalType": "address",
          "name": "account",
          "type": "address"
        }
      ],
      "name": "balanceOf",
      "outputs": [
        {
          "internalType": "uint256",
          "name": "",
          "type": "uint256"
        }
      ],
      "stateMutability": "view",
      "type": "function"
    },
    {
      "inputs": [
        {
          "internalType": "address",
          "name": "from",
          "type": "address"
        },
        {
          "internalType": "uint256",
          "name": "amount",
          "type": "uint256"
        }
      ],
      "name": "burn",
      "outputs": [],
      "stateMutability": "nonpayable",
      "type": "function"
    },
    {
      "inputs": [],
      "name": "decimals",
      "outputs": [
        {
          "internalType": "uint8",
          "name": "",
          "type": "uint8"
        }
      ],
      "stateMutability": "pure",
      "type": "function"
    },
    {
      "inputs": [
        {
          "internalType": "string",
          "name": "_name",
          "type": "string"
        },
        {
          "internalType": "string",
          "name": "_symbol",
          "type": "string"
        },
        {
          "internalType": "uint256",
          "name": "_initialSupply",
          "type": "uint256"
        },
        {
          "internalType": "address",
          "name": "owner",
          "type": "address"
        }
      ],
      "name": "initializeERC20",
      "outputs": [],
      "stateMutability": "nonpayable",
      "type": "function"
    },
    {
      "inputs": [],
      "name": "name",
      "outputs": [
        {
          "internalType": "string",
          "name": "",
          "type": "string"
        }
      ],
      "stateMutability": "view",
      "type": "function"
    },
    {
      "inputs": [],
      "name": "symbol",
      "outputs": [
        {
          "internalType": "string",
          "name": "",
          "type": "string"
        }
      ],
      "stateMutability": "view",
      "type": "function"
    },
    {
      "inputs": [],
      "name": "totalSupply",
      "outputs": [
        {
          "internalType": "uint256",
          "name": "",
          "type": "uint256"
        }
      ],
      "stateMutability": "view",
      "type": "function"
    },
    {
      "inputs": [
        {
          "internalType": "address",
          "name": "recipient",
          "type": "address"
        },
        {
          "internalType": "uint256",
          "name": "amount",
          "type": "uint256"
        }
      ],
      "name": "transfer",
      "outputs": [
        {
          "internalType": "bool",
          "name": "",
          "type": "bool"
        }
      ],
      "stateMutability": "nonpayable",
      "type": "function"
    }
  ],
  "bytecode": "0x6080604052348015600f57600080fd5b5061112b8061001f6000396000f3fe608060405234801561001057600080fd5b50600436106100935760003560e01c806395d89b411161006657806395d89b41146101225780639dc29fac14610140578063a9059cbb1461015c578063f3a7b82f1461018c578063fc1efa66146101a857610093565b806306fdde031461009857806318160ddd146100b6578063313ce567146100d457806370a08231146100f2575b600080fd5b6100a06101c4565b6040516100ad9190610821565b60405180910390f35b6100be610256565b6040516100cb919061085c565b60405180910390f35b6100dc610269565b6040516100e99190610893565b60405180910390f35b61010c60048036038101906101079190610920565b610272565b604051610119919061085c565b60405180910390f35b61012a6102c4565b6040516101379190610821565b60405180910390f35b61015a60048036038101906101559190610979565b610356565b005b61017660048036038101906101719190610979565b610364565b60405161018391906109d4565b60405180910390f35b6101a660048036038101906101a19190610b24565b61037b565b005b6101c260048036038101906101bd9190610bc3565b610413565b005b6060600180546101d390610c45565b80601f01602080910402602001604051908101604052809291908181526020018280546101ff90610c45565b801561024c5780601f106102215761010080835404028352916020019161024c565b820191906000526020600020905b81548152906001019060200180831161022f57829003601f168201915b5050505050905090565b6000610260610423565b60010154905090565b60006012905090565b600061027c610423565b60000160008373ffffffffffffffffffffffffffffffffffffffff1673ffffffffffffffffffffffffffffffffffffffff168152602001908152602001600020549050919050565b6060600280546102d390610c45565b80601f01602080910402602001604051908101604052809291908181526020018280546102ff90610c45565b801561034c5780601f106103215761010080835404028352916020019161034c565b820191906000526020600020905b81548152906001019060200180831161032f57829003601f168201915b5050505050905090565b6103608282610450565b5050565b6000610371338484610558565b6001905092915050565b60008054906101000a900460ff16156103c9576040517f08c379a00000000000000000000000000000000000000000000000000000000081526004016103c090610cc2565b60405180910390fd5b60016000806101000a81548160ff02191690831515021790555083600190816103f29190610e8e565b5082600290816104029190610e8e565b5061040d818361070d565b50505050565b61041e838383610558565b505050565b6000807fa716b7cce20ffbe12e5c0af3eb2f57d81251cd975b53428558ae4ad51b4f942590508091505090565b600061045a610423565b9050818160000160008573ffffffffffffffffffffffffffffffffffffffff1673ffffffffffffffffffffffffffffffffffffffff1681526020019081526020016000205410156104e0576040517f08c379a00000000000000000000000000000000000000000000000000000000081526004016104d790610fac565b60405180910390fd5b818160000160008573ffffffffffffffffffffffffffffffffffffffff1673ffffffffffffffffffffffffffffffffffffffff16815260200190815260200160002060008282546105319190610ffb565b925050819055508181600101600082825461054c9190610ffb565b92505081905550505050565b6000610562610423565b9050600073ffffffffffffffffffffffffffffffffffffffff168373ffffffffffffffffffffffffffffffffffffffff16036105d3576040517f08c379a00000000000000000000000000000000000000000000000000000000081526004016105ca906110a1565b60405180910390fd5b818160000160008673ffffffffffffffffffffffffffffffffffffffff1673ffffffffffffffffffffffffffffffffffffffff168152602001908152602001600020541015610657576040517f08c379a000000000000000000000000000000000000000000000000000000000815260040161064e90610fac565b60405180910390fd5b818160000160008673ffffffffffffffffffffffffffffffffffffffff1673ffffffffffffffffffffffffffffffffffffffff16815260200190815260200160002060008282546106a89190610ffb565b92505081905550818160000160008573ffffffffffffffffffffffffffffffffffffffff1673ffffffffffffffffffffffffffffffffffffffff168152602001908152602001600020600082825461070091906110c1565b9250508190555050505050565b6000610717610423565b90508181600101600082825461072d91906110c1565b92505081905550818160000160008573ffffffffffffffffffffffffffffffffffffffff1673ffffffffffffffffffffffffffffffffffffffff168152602001908152602001600020600082825461078591906110c1565b92505081905550505050565b600081519050919050565b600082825260208201905092915050565b60005b838110156107cb5780820151818401526020810190506107b0565b60008484015250505050565b6000601f19601f8301169050919050565b60006107f382610791565b6107fd818561079c565b935061080d8185602086016107ad565b610816816107d7565b840191505092915050565b6000602082019050818103600083015261083b81846107e8565b905092915050565b6000819050919050565b61085681610843565b82525050565b6000602082019050610871600083018461084d565b92915050565b600060ff82169050919050565b61088d81610877565b82525050565b60006020820190506108a86000830184610884565b92915050565b6000604051905090565b600080fd5b600080fd5b600073ffffffffffffffffffffffffffffffffffffffff82169050919050565b60006108ed826108c2565b9050919050565b6108fd816108e2565b811461090857600080fd5b50565b60008135905061091a816108f4565b92915050565b600060208284031215610936576109356108b8565b5b60006109448482850161090b565b91505092915050565b61095681610843565b811461096157600080fd5b50565b6000813590506109738161094d565b92915050565b600080604083850312156109905761098f6108b8565b5b600061099e8582860161090b565b92505060206109af85828601610964565b9150509250929050565b60008115159050919050565b6109ce816109b9565b82525050565b60006020820190506109e960008301846109c5565b92915050565b600080fd5b600080fd5b7f4e487b7100000000000000000000000000000000000000000000000000000000600052604160045260246000fd5b610a31826107d7565b810181811067ffffffffffffffff82111715610a5057610a4f6109f9565b5b80604052505050565b6000610a636108ae565b9050610a6f8282610a28565b919050565b600067ffffffffffffffff821115610a8f57610a8e6109f9565b5b610a98826107d7565b9050602081019050919050565b82818337600083830152505050565b6000610ac7610ac284610a74565b610a59565b905082815260208101848484011115610ae357610ae26109f4565b5b610aee848285610aa5565b509392505050565b600082601f830112610b0b57610b0a6109ef565b5b8135610b1b848260208601610ab4565b91505092915050565b60008060008060808587031215610b3e57610b3d6108b8565b5b600085013567ffffffffffffffff811115610b5c57610b5b6108bd565b5b610b6887828801610af6565b945050602085013567ffffffffffffffff811115610b8957610b886108bd565b5b610b9587828801610af6565b9350506040610ba687828801610964565b9250506060610bb78782880161090b565b91505092959194509250565b600080600060608486031215610bdc57610bdb6108b8565b5b6000610bea8682870161090b565b9350506020610bfb8682870161090b565b9250506040610c0c86828701610964565b9150509250925092565b7f4e487b7100000000000000000000000000000000000000000000000000000000600052602260045260246000fd5b60006002820490506001821680610c5d57607f821691505b602082108103610c7057610c6f610c16565b5b50919050565b7f416c726561647920696e697469616c697a656400000000000000000000000000600082015250565b6000610cac60138361079c565b9150610cb782610c76565b602082019050919050565b60006020820190508181036000830152610cdb81610c9f565b9050919050565b60008190508160005260206000209050919050565b60006020601f8301049050919050565b600082821b905092915050565b600060088302610d447fffffffffffffffffffffffffffffffffffffffffffffffffffffffffffffffff82610d07565b610d4e8683610d07565b95508019841693508086168417925050509392505050565b6000819050919050565b6000610d8b610d86610d8184610843565b610d66565b610843565b9050919050565b6000819050919050565b610da583610d70565b610db9610db182610d92565b848454610d14565b825550505050565b600090565b610dce610dc1565b610dd9818484610d9c565b505050565b5b81811015610dfd57610df2600082610dc6565b600181019050610ddf565b5050565b601f821115610e4257610e1381610ce2565b610e1c84610cf7565b81016020851015610e2b578190505b610e3f610e3785610cf7565b830182610dde565b50505b505050565b600082821c905092915050565b6000610e6560001984600802610e47565b1980831691505092915050565b6000610e7e8383610e54565b9150826002028217905092915050565b610e9782610791565b67ffffffffffffffff811115610eb057610eaf6109f9565b5b610eba8254610c45565b610ec5828285610e01565b600060209050601f831160018114610ef85760008415610ee6578287015190505b610ef08582610e72565b865550610f58565b601f198416610f0686610ce2565b60005b82811015610f2e57848901518255600182019150602085019450602081019050610f09565b86831015610f4b5784890151610f47601f891682610e54565b8355505b6001600288020188555050505b505050505050565b7f496e73756666696369656e742062616c616e6365000000000000000000000000600082015250565b6000610f9660148361079c565b9150610fa182610f60565b602082019050919050565b60006020820190508181036000830152610fc581610f89565b9050919050565b7f4e487b7100000000000000000000000000000000000000000000000000000000600052601160045260246000fd5b600061100682610843565b915061101183610843565b925082820390508181111561102957611028610fcc565b5b92915050565b7f45524332303a207472616e7366657220746f20746865207a65726f206164647260008201527f6573730000000000000000000000000000000000000000000000000000000000602082015250565b600061108b60238361079c565b91506110968261102f565b604082019050919050565b600060208201905081810360008301526110ba8161107e565b9050919050565b60006110cc82610843565b91506110d783610843565b92508282019050808211156110ef576110ee610fcc565b5b9291505056fea26469706673582212201c24af0481d7f283e15adc69ee647231c31fa851bc01f9bb5d53b9594e3e5e7364736f6c634300081c0033",
  "linkReferences": {},
  "deployedLinkReferences": {}
}