{
  "_format": "hh-sol-artifact-1",
  "contractName": "ERC20Facet",
  "sourceName": "contracts/facets/ERC20Facet.sol",
  "abi": [
    {
      "inputs": [],
      "stateMutability": "nonpayable",
      "type": "constructor"
    },
    {
      "inputs": [
        {
          "internalType": "address",
          "name": "spender",
          "type": "address"
        },
        {
          "internalType": "uint256",
          "name": "allowance",
          "type": "uint256"
        },
        {
          "internalType": "uint256",
          "name": "needed",
          "type": "uint256"
        }
      ],
      "name": "ERC20InsufficientAllowance",
      "type": "error"
    },
    {
      "inputs": [
        {
          "internalType": "address",
          "name": "sender",
          "type": "address"
        },
        {
          "internalType": "uint256",
          "name": "balance",
          "type": "uint256"
        },
        {
          "internalType": "uint256",
          "name": "needed",
          "type": "uint256"
        }
      ],
      "name": "ERC20InsufficientBalance",
      "type": "error"
    },
    {
      "inputs": [
        {
          "internalType": "address",
          "name": "approver",
          "type": "address"
        }
      ],
      "name": "ERC20InvalidApprover",
      "type": "error"
    },
    {
      "inputs": [
        {
          "internalType": "address",
          "name": "receiver",
          "type": "address"
        }
      ],
      "name": "ERC20InvalidReceiver",
      "type": "error"
    },
    {
      "inputs": [
        {
          "internalType": "address",
          "name": "sender",
          "type": "address"
        }
      ],
      "name": "ERC20InvalidSender",
      "type": "error"
    },
    {
      "inputs": [
        {
          "internalType": "address",
          "name": "spender",
          "type": "address"
        }
      ],
      "name": "ERC20InvalidSpender",
      "type": "error"
    },
    {
      "anonymous": false,
      "inputs": [
        {
          "indexed": true,
          "internalType": "address",
          "name": "owner",
          "type": "address"
        },
        {
          "indexed": true,
          "internalType": "address",
          "name": "spender",
          "type": "address"
        },
        {
          "indexed": false,
          "internalType": "uint256",
          "name": "value",
          "type": "uint256"
        }
      ],
      "name": "Approval",
      "type": "event"
    },
    {
      "anonymous": false,
      "inputs": [
        {
          "indexed": true,
          "internalType": "address",
          "name": "from",
          "type": "address"
        },
        {
          "indexed": true,
          "internalType": "address",
          "name": "to",
          "type": "address"
        },
        {
          "indexed": false,
          "internalType": "uint256",
          "name": "value",
          "type": "uint256"
        }
      ],
      "name": "Transfer",
      "type": "event"
    },
    {
      "inputs": [
        {
          "internalType": "address",
          "name": "owner",
          "type": "address"
        },
        {
          "internalType": "address",
          "name": "spender",
          "type": "address"
        }
      ],
      "name": "allowance",
      "outputs": [
        {
          "internalType": "uint256",
          "name": "",
          "type": "uint256"
        }
      ],
      "stateMutability": "view",
      "type": "function"
    },
    {
      "inputs": [
        {
          "internalType": "address",
          "name": "spender",
          "type": "address"
        },
        {
          "internalType": "uint256",
          "name": "value",
          "type": "uint256"
        }
      ],
      "name": "approve",
      "outputs": [
        {
          "internalType": "bool",
          "name": "",
          "type": "bool"
        }
      ],
      "stateMutability": "nonpayable",
      "type": "function"
    },
    {
      "inputs": [
        {
          "internalType": "address",
          "name": "account",
          "type": "address"
        }
      ],
      "name": "balanceOf",
      "outputs": [
        {
          "internalType": "uint256",
          "name": "",
          "type": "uint256"
        }
      ],
      "stateMutability": "view",
      "type": "function"
    },
    {
      "inputs": [],
      "name": "decimals",
      "outputs": [
        {
          "internalType": "uint8",
          "name": "",
          "type": "uint8"
        }
      ],
      "stateMutability": "view",
      "type": "function"
    },
    {
      "inputs": [
        {
          "internalType": "string",
          "name": "_name",
          "type": "string"
        },
        {
          "internalType": "string",
          "name": "_symbol",
          "type": "string"
        },
        {
          "internalType": "uint256",
          "name": "_initialSupply",
          "type": "uint256"
        },
        {
          "internalType": "address",
          "name": "owner",
          "type": "address"
        }
      ],
      "name": "initializeERC20",
      "outputs": [],
      "stateMutability": "nonpayable",
      "type": "function"
    },
    {
      "inputs": [],
      "name": "name",
      "outputs": [
        {
          "internalType": "string",
          "name": "",
          "type": "string"
        }
      ],
      "stateMutability": "view",
      "type": "function"
    },
    {
      "inputs": [],
      "name": "symbol",
      "outputs": [
        {
          "internalType": "string",
          "name": "",
          "type": "string"
        }
      ],
      "stateMutability": "view",
      "type": "function"
    },
    {
      "inputs": [],
      "name": "totalSupply",
      "outputs": [
        {
          "internalType": "uint256",
          "name": "",
          "type": "uint256"
        }
      ],
      "stateMutability": "view",
      "type": "function"
    },
    {
      "inputs": [
        {
          "internalType": "address",
          "name": "to",
          "type": "address"
        },
        {
          "internalType": "uint256",
          "name": "value",
          "type": "uint256"
        }
      ],
      "name": "transfer",
      "outputs": [
        {
          "internalType": "bool",
          "name": "",
          "type": "bool"
        }
      ],
      "stateMutability": "nonpayable",
      "type": "function"
    },
    {
      "inputs": [
        {
          "internalType": "address",
          "name": "from",
          "type": "address"
        },
        {
          "internalType": "address",
          "name": "to",
          "type": "address"
        },
        {
          "internalType": "uint256",
          "name": "value",
          "type": "uint256"
        }
      ],
      "name": "transferFrom",
      "outputs": [
        {
          "internalType": "bool",
          "name": "",
          "type": "bool"
        }
      ],
      "stateMutability": "nonpayable",
      "type": "function"
    }
  ],
  "bytecode": "0x608060405234801561001057600080fd5b506040518060400160405280601181526020017f4d616e616765642044656d6f63726163790000000000000000000000000000008152506040518060400160405280600481526020017f4d44454d00000000000000000000000000000000000000000000000000000000815250816003908161008c919061030f565b50806004908161009c919061030f565b5050506001600560006101000a81548160ff0219169083151502179055506103e1565b600081519050919050565b7f4e487b7100000000000000000000000000000000000000000000000000000000600052604160045260246000fd5b7f4e487b7100000000000000000000000000000000000000000000000000000000600052602260045260246000fd5b6000600282049050600182168061014057607f821691505b602082108103610153576101526100f9565b5b50919050565b60008190508160005260206000209050919050565b60006020601f8301049050919050565b600082821b905092915050565b6000600883026101bb7fffffffffffffffffffffffffffffffffffffffffffffffffffffffffffffffff8261017e565b6101c5868361017e565b95508019841693508086168417925050509392505050565b6000819050919050565b6000819050919050565b600061020c610207610202846101dd565b6101e7565b6101dd565b9050919050565b6000819050919050565b610226836101f1565b61023a61023282610213565b84845461018b565b825550505050565b600090565b61024f610242565b61025a81848461021d565b505050565b5b8181101561027e57610273600082610247565b600181019050610260565b5050565b601f8211156102c35761029481610159565b61029d8461016e565b810160208510156102ac578190505b6102c06102b88561016e565b83018261025f565b50505b505050565b600082821c905092915050565b60006102e6600019846008026102c8565b1980831691505092915050565b60006102ff83836102d5565b9150826002028217905092915050565b610318826100bf565b67ffffffffffffffff811115610331576103306100ca565b5b61033b8254610128565b610346828285610282565b600060209050601f8311600181146103795760008415610367578287015190505b61037185826102f3565b8655506103d9565b601f19841661038786610159565b60005b828110156103af5784890151825560018201915060208501945060208101905061038a565b868310156103cc57848901516103c8601f8916826102d5565b8355505b6001600288020188555050505b505050505050565b611467806103f06000396000f3fe608060405234801561001057600080fd5b506004361061009e5760003560e01c806370a082311161006657806370a082311461015d57806395d89b411461018d578063a9059cbb146101ab578063dd62ed3e146101db578063f3a7b82f1461020b5761009e565b806306fdde03146100a3578063095ea7b3146100c157806318160ddd146100f157806323b872dd1461010f578063313ce5671461013f575b600080fd5b6100ab610227565b6040516100b89190610bee565b60405180910390f35b6100db60048036038101906100d69190610cb8565b6102b9565b6040516100e89190610d13565b60405180910390f35b6100f96102dc565b6040516101069190610d3d565b60405180910390f35b61012960048036038101906101249190610d58565b6102e6565b6040516101369190610d13565b60405180910390f35b610147610315565b6040516101549190610dc7565b60405180910390f35b61017760048036038101906101729190610de2565b61031e565b6040516101849190610d3d565b60405180910390f35b610195610366565b6040516101a29190610bee565b60405180910390f35b6101c560048036038101906101c09190610cb8565b6103f8565b6040516101d29190610d13565b60405180910390f35b6101f560048036038101906101f09190610e0f565b61041b565b6040516102029190610d3d565b60405180910390f35b61022560048036038101906102209190610f84565b6104a2565b005b60606006805461023690611052565b80601f016020809104026020016040519081016040528092919081815260200182805461026290611052565b80156102af5780601f10610284576101008083540402835291602001916102af565b820191906000526020600020905b81548152906001019060200180831161029257829003601f168201915b5050505050905090565b6000806102c461053d565b90506102d1818585610545565b600191505092915050565b6000600254905090565b6000806102f161053d565b90506102fe858285610557565b6103098585856105ec565b60019150509392505050565b60006012905090565b60008060008373ffffffffffffffffffffffffffffffffffffffff1673ffffffffffffffffffffffffffffffffffffffff168152602001908152602001600020549050919050565b60606007805461037590611052565b80601f01602080910402602001604051908101604052809291908181526020018280546103a190611052565b80156103ee5780601f106103c3576101008083540402835291602001916103ee565b820191906000526020600020905b8154815290600101906020018083116103d157829003601f168201915b5050505050905090565b60008061040361053d565b90506104108185856105ec565b600191505092915050565b6000600160008473ffffffffffffffffffffffffffffffffffffffff1673ffffffffffffffffffffffffffffffffffffffff16815260200190815260200160002060008373ffffffffffffffffffffffffffffffffffffffff1673ffffffffffffffffffffffffffffffffffffffff16815260200190815260200160002054905092915050565b600560009054906101000a900460ff16156104f2576040517f08c379a00000000000000000000000000000000000000000000000000000000081526004016104e9906110cf565b60405180910390fd5b6001600560006101000a81548160ff021916908315150217905550836006908161051c919061129b565b50826007908161052c919061129b565b5061053781836106e0565b50505050565b600033905090565b6105528383836001610762565b505050565b6000610563848461041b565b90507fffffffffffffffffffffffffffffffffffffffffffffffffffffffffffffffff8110156105e657818110156105d6578281836040517ffb8f41b20000000000000000000000000000000000000000000000000000000081526004016105cd9392919061137c565b60405180910390fd5b6105e584848484036000610762565b5b50505050565b600073ffffffffffffffffffffffffffffffffffffffff168373ffffffffffffffffffffffffffffffffffffffff160361065e5760006040517f96c6fd1e00000000000000000000000000000000000000000000000000000000815260040161065591906113b3565b60405180910390fd5b600073ffffffffffffffffffffffffffffffffffffffff168273ffffffffffffffffffffffffffffffffffffffff16036106d05760006040517fec442f050000000000000000000000000000000000000000000000000000000081526004016106c791906113b3565b60405180910390fd5b6106db838383610939565b505050565b600073ffffffffffffffffffffffffffffffffffffffff168273ffffffffffffffffffffffffffffffffffffffff16036107525760006040517fec442f0500000000000000000000000000000000000000000000000000000000815260040161074991906113b3565b60405180910390fd5b61075e60008383610939565b5050565b600073ffffffffffffffffffffffffffffffffffffffff168473ffffffffffffffffffffffffffffffffffffffff16036107d45760006040517fe602df050000000000000000000000000000000000000000000000000000000081526004016107cb91906113b3565b60405180910390fd5b600073ffffffffffffffffffffffffffffffffffffffff168373ffffffffffffffffffffffffffffffffffffffff16036108465760006040517f94280d6200000000000000000000000000000000000000000000000000000000815260040161083d91906113b3565b60405180910390fd5b81600160008673ffffffffffffffffffffffffffffffffffffffff1673ffffffffffffffffffffffffffffffffffffffff16815260200190815260200160002060008573ffffffffffffffffffffffffffffffffffffffff1673ffffffffffffffffffffffffffffffffffffffff168152602001908152602001600020819055508015610933578273ffffffffffffffffffffffffffffffffffffffff168473ffffffffffffffffffffffffffffffffffffffff167f8c5be1e5ebec7d5bd14f71427d1e84f3dd0314c0f7b2291e5b200ac8c7c3b9258460405161092a9190610d3d565b60405180910390a35b50505050565b600073ffffffffffffffffffffffffffffffffffffffff168373ffffffffffffffffffffffffffffffffffffffff160361098b57806002600082825461097f91906113fd565b92505081905550610a5e565b60008060008573ffffffffffffffffffffffffffffffffffffffff1673ffffffffffffffffffffffffffffffffffffffff16815260200190815260200160002054905081811015610a17578381836040517fe450d38c000000000000000000000000000000000000000000000000000000008152600401610a0e9392919061137c565b60405180910390fd5b8181036000808673ffffffffffffffffffffffffffffffffffffffff1673ffffffffffffffffffffffffffffffffffffffff16815260200190815260200160002081905550505b600073ffffffffffffffffffffffffffffffffffffffff168273ffffffffffffffffffffffffffffffffffffffff1603610aa75780600260008282540392505081905550610af4565b806000808473ffffffffffffffffffffffffffffffffffffffff1673ffffffffffffffffffffffffffffffffffffffff168152602001908152602001600020600082825401925050819055505b8173ffffffffffffffffffffffffffffffffffffffff168373ffffffffffffffffffffffffffffffffffffffff167fddf252ad1be2c89b69c2b068fc378daa952ba7f163c4a11628f55a4df523b3ef83604051610b519190610d3d565b60405180910390a3505050565b600081519050919050565b600082825260208201905092915050565b60005b83811015610b98578082015181840152602081019050610b7d565b60008484015250505050565b6000601f19601f8301169050919050565b6000610bc082610b5e565b610bca8185610b69565b9350610bda818560208601610b7a565b610be381610ba4565b840191505092915050565b60006020820190508181036000830152610c088184610bb5565b905092915050565b6000604051905090565b600080fd5b600080fd5b600073ffffffffffffffffffffffffffffffffffffffff82169050919050565b6000610c4f82610c24565b9050919050565b610c5f81610c44565b8114610c6a57600080fd5b50565b600081359050610c7c81610c56565b92915050565b6000819050919050565b610c9581610c82565b8114610ca057600080fd5b50565b600081359050610cb281610c8c565b92915050565b60008060408385031215610ccf57610cce610c1a565b5b6000610cdd85828601610c6d565b9250506020610cee85828601610ca3565b9150509250929050565b60008115159050919050565b610d0d81610cf8565b82525050565b6000602082019050610d286000830184610d04565b92915050565b610d3781610c82565b82525050565b6000602082019050610d526000830184610d2e565b92915050565b600080600060608486031215610d7157610d70610c1a565b5b6000610d7f86828701610c6d565b9350506020610d9086828701610c6d565b9250506040610da186828701610ca3565b9150509250925092565b600060ff82169050919050565b610dc181610dab565b82525050565b6000602082019050610ddc6000830184610db8565b92915050565b600060208284031215610df857610df7610c1a565b5b6000610e0684828501610c6d565b91505092915050565b60008060408385031215610e2657610e25610c1a565b5b6000610e3485828601610c6d565b9250506020610e4585828601610c6d565b9150509250929050565b600080fd5b600080fd5b7f4e487b7100000000000000000000000000000000000000000000000000000000600052604160045260246000fd5b610e9182610ba4565b810181811067ffffffffffffffff82111715610eb057610eaf610e59565b5b80604052505050565b6000610ec3610c10565b9050610ecf8282610e88565b919050565b600067ffffffffffffffff821115610eef57610eee610e59565b5b610ef882610ba4565b9050602081019050919050565b82818337600083830152505050565b6000610f27610f2284610ed4565b610eb9565b905082815260208101848484011115610f4357610f42610e54565b5b610f4e848285610f05565b509392505050565b600082601f830112610f6b57610f6a610e4f565b5b8135610f7b848260208601610f14565b91505092915050565b60008060008060808587031215610f9e57610f9d610c1a565b5b600085013567ffffffffffffffff811115610fbc57610fbb610c1f565b5b610fc887828801610f56565b945050602085013567ffffffffffffffff811115610fe957610fe8610c1f565b5b610ff587828801610f56565b935050604061100687828801610ca3565b925050606061101787828801610c6d565b91505092959194509250565b7f4e487b7100000000000000000000000000000000000000000000000000000000600052602260045260246000fd5b6000600282049050600182168061106a57607f821691505b60208210810361107d5761107c611023565b5b50919050565b7f416c726561647920696e697469616c697a656400000000000000000000000000600082015250565b60006110b9601383610b69565b91506110c482611083565b602082019050919050565b600060208201905081810360008301526110e8816110ac565b9050919050565b60008190508160005260206000209050919050565b60006020601f8301049050919050565b600082821b905092915050565b6000600883026111517fffffffffffffffffffffffffffffffffffffffffffffffffffffffffffffffff82611114565b61115b8683611114565b95508019841693508086168417925050509392505050565b6000819050919050565b600061119861119361118e84610c82565b611173565b610c82565b9050919050565b6000819050919050565b6111b28361117d565b6111c66111be8261119f565b848454611121565b825550505050565b600090565b6111db6111ce565b6111e68184846111a9565b505050565b5b8181101561120a576111ff6000826111d3565b6001810190506111ec565b5050565b601f82111561124f57611220816110ef565b61122984611104565b81016020851015611238578190505b61124c61124485611104565b8301826111eb565b50505b505050565b600082821c905092915050565b600061127260001984600802611254565b1980831691505092915050565b600061128b8383611261565b9150826002028217905092915050565b6112a482610b5e565b67ffffffffffffffff8111156112bd576112bc610e59565b5b6112c78254611052565b6112d282828561120e565b600060209050601f83116001811461130557600084156112f3578287015190505b6112fd858261127f565b865550611365565b601f198416611313866110ef565b60005b8281101561133b57848901518255600182019150602085019450602081019050611316565b868310156113585784890151611354601f891682611261565b8355505b6001600288020188555050505b505050505050565b61137681610c44565b82525050565b6000606082019050611391600083018661136d565b61139e6020830185610d2e565b6113ab6040830184610d2e565b949350505050565b60006020820190506113c8600083018461136d565b92915050565b7f4e487b7100000000000000000000000000000000000000000000000000000000600052601160045260246000fd5b600061140882610c82565b915061141383610c82565b925082820190508082111561142b5761142a6113ce565b5b9291505056fea2646970667358221220e2692a64361f25442afe2a50b73b18645f6adc985403399c92dc5cd86016069c64736f6c634300081c0033",
  "linkReferences": {},
  "deployedLinkReferences": {}
}