{
  "_format": "hh-sol-artifact-1",
  "contractName": "ERC20Facet",
  "sourceName": "contracts/facets/ERC20Facet.sol",
  "abi": [
    {
      "inputs": [
        {
          "internalType": "address",
          "name": "sender",
          "type": "address"
        },
        {
          "internalType": "address",
          "name": "recipient",
          "type": "address"
        },
        {
          "internalType": "uint256",
          "name": "amount",
          "type": "uint256"
        }
      ],
      "name": "_transferTokens",
      "outputs": [],
      "stateMutability": "nonpayable",
      "type": "function"
    },
    {
      "inputs": [
        {
          "internalType": "address",
          "name": "account",
          "type": "address"
        }
      ],
      "name": "balanceOf",
      "outputs": [
        {
          "internalType": "uint256",
          "name": "",
          "type": "uint256"
        }
      ],
      "stateMutability": "view",
      "type": "function"
    },
    {
      "inputs": [
        {
          "internalType": "address",
          "name": "from",
          "type": "address"
        },
        {
          "internalType": "uint256",
          "name": "amount",
          "type": "uint256"
        }
      ],
      "name": "burn",
      "outputs": [],
      "stateMutability": "nonpayable",
      "type": "function"
    },
    {
      "inputs": [],
      "name": "decimals",
      "outputs": [
        {
          "internalType": "uint8",
          "name": "",
          "type": "uint8"
        }
      ],
      "stateMutability": "pure",
      "type": "function"
    },
    {
      "inputs": [
        {
          "internalType": "string",
          "name": "_name",
          "type": "string"
        },
        {
          "internalType": "string",
          "name": "_symbol",
          "type": "string"
        },
        {
          "internalType": "uint256",
          "name": "_initialSupply",
          "type": "uint256"
        },
        {
          "internalType": "address",
          "name": "owner",
          "type": "address"
        }
      ],
      "name": "initializeERC20",
      "outputs": [],
      "stateMutability": "nonpayable",
      "type": "function"
    },
    {
      "inputs": [],
      "name": "name",
      "outputs": [
        {
          "internalType": "string",
          "name": "",
          "type": "string"
        }
      ],
      "stateMutability": "view",
      "type": "function"
    },
    {
      "inputs": [],
      "name": "symbol",
      "outputs": [
        {
          "internalType": "string",
          "name": "",
          "type": "string"
        }
      ],
      "stateMutability": "view",
      "type": "function"
    },
    {
      "inputs": [],
      "name": "totalSupply",
      "outputs": [
        {
          "internalType": "uint256",
          "name": "",
          "type": "uint256"
        }
      ],
      "stateMutability": "view",
      "type": "function"
    },
    {
      "inputs": [
        {
          "internalType": "address",
          "name": "recipient",
          "type": "address"
        },
        {
          "internalType": "uint256",
          "name": "amount",
          "type": "uint256"
        }
      ],
      "name": "transfer",
      "outputs": [
        {
          "internalType": "bool",
          "name": "",
          "type": "bool"
        }
      ],
      "stateMutability": "nonpayable",
      "type": "function"
    }
  ],
  "bytecode": "0x6080604052348015600f57600080fd5b5061102a8061001f6000396000f3fe608060405234801561001057600080fd5b50600436106100935760003560e01c806395d89b411161006657806395d89b41146101225780639dc29fac14610140578063a9059cbb1461015c578063f3a7b82f1461018c578063fc1efa66146101a857610093565b806306fdde031461009857806318160ddd146100b6578063313ce567146100d457806370a08231146100f2575b600080fd5b6100a06101c4565b6040516100ad91906107b2565b60405180910390f35b6100be610256565b6040516100cb91906107ed565b60405180910390f35b6100dc610269565b6040516100e99190610824565b60405180910390f35b61010c600480360381019061010791906108b1565b610272565b60405161011991906107ed565b60405180910390f35b61012a6102c4565b60405161013791906107b2565b60405180910390f35b61015a6004803603810190610155919061090a565b610356565b005b6101766004803603810190610171919061090a565b610364565b6040516101839190610965565b60405180910390f35b6101a660048036038101906101a19190610ab5565b61037b565b005b6101c260048036038101906101bd9190610b54565b610413565b005b6060600180546101d390610bd6565b80601f01602080910402602001604051908101604052809291908181526020018280546101ff90610bd6565b801561024c5780601f106102215761010080835404028352916020019161024c565b820191906000526020600020905b81548152906001019060200180831161022f57829003601f168201915b5050505050905090565b6000610260610423565b60010154905090565b60006012905090565b600061027c610423565b60000160008373ffffffffffffffffffffffffffffffffffffffff1673ffffffffffffffffffffffffffffffffffffffff168152602001908152602001600020549050919050565b6060600280546102d390610bd6565b80601f01602080910402602001604051908101604052809291908181526020018280546102ff90610bd6565b801561034c5780601f106103215761010080835404028352916020019161034c565b820191906000526020600020905b81548152906001019060200180831161032f57829003601f168201915b5050505050905090565b6103608282610450565b5050565b6000610371338484610558565b6001905092915050565b60008054906101000a900460ff16156103c9576040517f08c379a00000000000000000000000000000000000000000000000000000000081526004016103c090610c53565b60405180910390fd5b60016000806101000a81548160ff02191690831515021790555083600190816103f29190610e1f565b5082600290816104029190610e1f565b5061040d818361069e565b50505050565b61041e838383610558565b505050565b6000807fa716b7cce20ffbe12e5c0af3eb2f57d81251cd975b53428558ae4ad51b4f942590508091505090565b600061045a610423565b9050818160000160008573ffffffffffffffffffffffffffffffffffffffff1673ffffffffffffffffffffffffffffffffffffffff1681526020019081526020016000205410156104e0576040517f08c379a00000000000000000000000000000000000000000000000000000000081526004016104d790610f3d565b60405180910390fd5b818160000160008573ffffffffffffffffffffffffffffffffffffffff1673ffffffffffffffffffffffffffffffffffffffff16815260200190815260200160002060008282546105319190610f8c565b925050819055508181600101600082825461054c9190610f8c565b92505081905550505050565b6000610562610423565b9050818160000160008673ffffffffffffffffffffffffffffffffffffffff1673ffffffffffffffffffffffffffffffffffffffff1681526020019081526020016000205410156105e8576040517f08c379a00000000000000000000000000000000000000000000000000000000081526004016105df90610f3d565b60405180910390fd5b818160000160008673ffffffffffffffffffffffffffffffffffffffff1673ffffffffffffffffffffffffffffffffffffffff16815260200190815260200160002060008282546106399190610f8c565b92505081905550818160000160008573ffffffffffffffffffffffffffffffffffffffff1673ffffffffffffffffffffffffffffffffffffffff16815260200190815260200160002060008282546106919190610fc0565b9250508190555050505050565b60006106a8610423565b9050818160010160008282546106be9190610fc0565b92505081905550818160000160008573ffffffffffffffffffffffffffffffffffffffff1673ffffffffffffffffffffffffffffffffffffffff16815260200190815260200160002060008282546107169190610fc0565b92505081905550505050565b600081519050919050565b600082825260208201905092915050565b60005b8381101561075c578082015181840152602081019050610741565b60008484015250505050565b6000601f19601f8301169050919050565b600061078482610722565b61078e818561072d565b935061079e81856020860161073e565b6107a781610768565b840191505092915050565b600060208201905081810360008301526107cc8184610779565b905092915050565b6000819050919050565b6107e7816107d4565b82525050565b600060208201905061080260008301846107de565b92915050565b600060ff82169050919050565b61081e81610808565b82525050565b60006020820190506108396000830184610815565b92915050565b6000604051905090565b600080fd5b600080fd5b600073ffffffffffffffffffffffffffffffffffffffff82169050919050565b600061087e82610853565b9050919050565b61088e81610873565b811461089957600080fd5b50565b6000813590506108ab81610885565b92915050565b6000602082840312156108c7576108c6610849565b5b60006108d58482850161089c565b91505092915050565b6108e7816107d4565b81146108f257600080fd5b50565b600081359050610904816108de565b92915050565b6000806040838503121561092157610920610849565b5b600061092f8582860161089c565b9250506020610940858286016108f5565b9150509250929050565b60008115159050919050565b61095f8161094a565b82525050565b600060208201905061097a6000830184610956565b92915050565b600080fd5b600080fd5b7f4e487b7100000000000000000000000000000000000000000000000000000000600052604160045260246000fd5b6109c282610768565b810181811067ffffffffffffffff821117156109e1576109e061098a565b5b80604052505050565b60006109f461083f565b9050610a0082826109b9565b919050565b600067ffffffffffffffff821115610a2057610a1f61098a565b5b610a2982610768565b9050602081019050919050565b82818337600083830152505050565b6000610a58610a5384610a05565b6109ea565b905082815260208101848484011115610a7457610a73610985565b5b610a7f848285610a36565b509392505050565b600082601f830112610a9c57610a9b610980565b5b8135610aac848260208601610a45565b91505092915050565b60008060008060808587031215610acf57610ace610849565b5b600085013567ffffffffffffffff811115610aed57610aec61084e565b5b610af987828801610a87565b945050602085013567ffffffffffffffff811115610b1a57610b1961084e565b5b610b2687828801610a87565b9350506040610b37878288016108f5565b9250506060610b488782880161089c565b91505092959194509250565b600080600060608486031215610b6d57610b6c610849565b5b6000610b7b8682870161089c565b9350506020610b8c8682870161089c565b9250506040610b9d868287016108f5565b9150509250925092565b7f4e487b7100000000000000000000000000000000000000000000000000000000600052602260045260246000fd5b60006002820490506001821680610bee57607f821691505b602082108103610c0157610c00610ba7565b5b50919050565b7f416c726561647920696e697469616c697a656400000000000000000000000000600082015250565b6000610c3d60138361072d565b9150610c4882610c07565b602082019050919050565b60006020820190508181036000830152610c6c81610c30565b9050919050565b60008190508160005260206000209050919050565b60006020601f8301049050919050565b600082821b905092915050565b600060088302610cd57fffffffffffffffffffffffffffffffffffffffffffffffffffffffffffffffff82610c98565b610cdf8683610c98565b95508019841693508086168417925050509392505050565b6000819050919050565b6000610d1c610d17610d12846107d4565b610cf7565b6107d4565b9050919050565b6000819050919050565b610d3683610d01565b610d4a610d4282610d23565b848454610ca5565b825550505050565b600090565b610d5f610d52565b610d6a818484610d2d565b505050565b5b81811015610d8e57610d83600082610d57565b600181019050610d70565b5050565b601f821115610dd357610da481610c73565b610dad84610c88565b81016020851015610dbc578190505b610dd0610dc885610c88565b830182610d6f565b50505b505050565b600082821c905092915050565b6000610df660001984600802610dd8565b1980831691505092915050565b6000610e0f8383610de5565b9150826002028217905092915050565b610e2882610722565b67ffffffffffffffff811115610e4157610e4061098a565b5b610e4b8254610bd6565b610e56828285610d92565b600060209050601f831160018114610e895760008415610e77578287015190505b610e818582610e03565b865550610ee9565b601f198416610e9786610c73565b60005b82811015610ebf57848901518255600182019150602085019450602081019050610e9a565b86831015610edc5784890151610ed8601f891682610de5565b8355505b6001600288020188555050505b505050505050565b7f496e73756666696369656e742062616c616e6365000000000000000000000000600082015250565b6000610f2760148361072d565b9150610f3282610ef1565b602082019050919050565b60006020820190508181036000830152610f5681610f1a565b9050919050565b7f4e487b7100000000000000000000000000000000000000000000000000000000600052601160045260246000fd5b6000610f97826107d4565b9150610fa2836107d4565b9250828203905081811115610fba57610fb9610f5d565b5b92915050565b6000610fcb826107d4565b9150610fd6836107d4565b9250828201905080821115610fee57610fed610f5d565b5b9291505056fea26469706673582212206d8eef0fb4246e874ecb29e2ec5d24957d8cddbf6df55b03aa33e72f3d1fb4dd64736f6c634300081c0033",
  "linkReferences": {},
  "deployedLinkReferences": {}
}